:100000000010002085060000810600008106000027
:1000100081060000810600008106000081060000C4
:1000200081060000810600008106000081060000B4
:1000300081060000810600008106000041120000D8
:10004000850E0000A111000081060000810600005D
:100050008106000081060000C11100008106000039
:100060008106000081060000952E00008106000038
:10007000951700008106000081060000810600003F
:1000800081060000810600008106000010B5064CC4
:100090002378002B07D1054B002B02D0044800E049
:1000A00000BF0123237010BDC0000020000000002D
:1000B000E4660000044B10B5002B03D0034904484C
:1000C00000E000BF10BDC04600000000C4000020DA
:1000D000E4660000164B002B00D1144B9D464022D5
:1000E00092029A1A924600218B460F461348144AF0
:1000F000121A02F03EFF0F4B002B00D098470E4B18
:10010000002B00D098470020002104000D000D486E
:10011000002802D00C4800F049FA02F0FDFE200051
:10012000290000F046FA02F0E1FEC0460000080097
:10013000001000200000000000000000C0000020AF
:1001400054030020AD050000000000005A22034BBC
:100150001A60034B573A1A707047C046F0000020EF
:10016000F400002010B51B4800F0AEFF1A4B1868D1
:1001700001F0F0FA194C0C2123680D2001332360A3
:1001800001F09EFF01F05AFF154B186001F01EFFB1
:10019000144B1860144B196804F042F840004008F2
:1001A000124903F067FA002806D05A22104B1A6051
:1001B000104B593A1A7010BD68232268FF339A42D7
:1001C000F9D95A220A4B20601A600A4B583A1A7021
:1001D000F1E7C04600800840F8000020DC00002065
:1001E000E8000020E4000020EC0000200000404077
:1001F000F0000020F400002010B50121082001F0DB
:1002000075F810BD10B50021082001F06FF810BD81
:10021000F7B50325002401F037FB070001F028FBA8
:100220000190002001F02AFB002001F01BFB0021BF
:10023000082001F02FFB0600380001F01FFB6B4681
:10024000187901F00FFB300001F070FB011C201C3D
:1002500003F042FB013D041C002DDCD1014903F0F9
:10026000D5FCFEBD0000404070B5002001F006FB4B
:10027000052500240121032001F00CFB013D241879
:10028000002DF7D1200005F04FFF00220C4B05F0A8
:100290005BF900220B4B05F057F9FD2300229B056B
:1002A00005F052F9084A094B04F044FD0022084BBE
:1002B00004F040FD05F0F6FF064B186070BDC04627
:1002C000008893400000E03F666666666666E63F2B
:1002D00000001440E000002030B5164985B001ACA4
:1002E00009222431200002F03BFE01250C230421C9
:1002F00008202372A570E57000F0E4FFFFF782FF8D
:100300002900002000F0DEFF03220B49002000F04E
:1003100067FF01F0E9F8094801F0C2F82100084838
:1003200000F0DEFE0022074B1A70074B5A321A60AB
:1003300005B030BDDC6300004D010000F800002076
:1003400000800840F4000020F000002010B5044CAC
:1003500014220449200001F0DDFF0123237610BDA3
:100360004C020020002076000200002310B5141A71
:10037000A14204DD147801321B199BB2F7E7180083
:1003800010BD0000F0B585B0FFF76EFF624D28602C
:1003900072B6286805F034FF604B614A03F030F90B
:1003A000604C0423002801D15F4B1B78E37362B6D5
:1003B00001F06AFA070001F05BFA0390012001F0F6
:1003C0005DFA002001F04EFA0021092001F062FAE6
:1003D0000600380001F052FA6B46187B01F042FA31
:1003E000300005F0A1FE0022504B05F0ADF80022D0
:1003F0004F4B05F0A9F84F4B002205F0A5F805F08A
:1004000051FF494B03901B784B4F032B01D0002B1E
:100410000AD10C210D2001F053FE01F00FFE3860CF
:1004200001F0D4FD454B1860FFF7E6FE444A434E09
:10043000136852683068110EE1701102090E2171C3
:10044000A27111041A0EE2711A02120E22721A041B
:10045000120E090E6272A37261713A4903F0AEFD89
:1004600004F0A2F800B203041B0EE37236492073B5
:10047000039803F0A3FD04F097F800B203041B0EE9
:100480006373294B12211B78A073E3732F4B200059
:100490005A7822741A7862741A8801321A80FFF727
:1004A00063FF03041B0EA374E074FFF7B1FE039017
:1004B000386802F0CFFE04F077F82075039802F058
:1004C000C9FE04F071F800236075A375286802F076
:1004D000C1FE04F069F8E075FFF738FF1C4D2800F5
:1004E00002F0A8F91B4B22000093012118232800D9
:1004F00002F036FB002802D13268174B1A60280040
:1005000002F00EFA0021092000F0F0FE01F0CAFC12
:10051000FFF778FE05B0F0BDE00000206666FE3F04
:100520006666666600000020F400002000000440BB
:10053000000008400000303FE8000020E4000020F8
:100540000800E00F0000204100007A44F60000207F
:100550004C020020B80B0000EC00002013B50F4C3B
:1005600023685A2B03D1FFF70DFF00232360FFF709
:1005700049FE0021092000F0B9FE01F093FC0021A2
:1005800007480091074B084A006800F0F9FF01F0A6
:1005900089FB012000F0B6FC13BDC046F00000202E
:1005A000F800002065010000204E00000020704788
:1005B000704710B500F05CFEFFF7FAFFFFF78CFE06
:1005C000FFF7CCFFFCE7000010B50521012000F08B
:1005D000BBFB002000F056FB0121024800F0B2F9FD
:1005E00010BDC046408104000A4B10B519680200D6
:1005F000002901D1084919606946186882188A42A1
:1006000006D902F06DFC0C2303600120404210BDAE
:100610001A60FCE7FC000020540300200120704712
:1006200010B502F05DFC162303600120404210BDAE
:1006300010B502F055FC16230360FEE7012040428E
:10064000704780239B0100204B607047012070475A
:100650000020704770B50E0015000C00A31B9D42D2
:1006600001DC280070BD00E000BF20700134F5E718
:1006700010B502F035FC1F2303600120404210BD7D
:10068000FEE7000070B502F0E7FA002305480649CE
:10069000064C1A188A4201D3FFF71CFDE5580433B3
:1006A0001560F6E700000020BC000020F0660000A6
:1006B00010B501248C408A400368A3431A430260AA
:1006C00010BD000030B50400002A0BD11A4B656B39
:1006D0001D4006292DD8080002F0E8FD07141E224F
:1006E0002B2B26001022154BF1E715494B68496862
:1006F000FE20C00103407F2001400B4393402B4369
:10070000636330BD0E494B684968FE201B0CC00175
:1007100049020340490EF0E709498B688968E7E719
:1007200007498B688968F0E77F21054BDB680B4040
:10073000E4E70023E2E7C0468080FFFFFFFF808000
:10074000B081E00F0B4B0C4A70B5DD6BDA635A6871
:100750000A4A0B49801800221600814256410720A0
:1007600031005C68844321435960954200D0DA63CC
:1007700070BDC04600000C40711B0000FFDB0BFF8A
:10078000FF23F400036CDB0702D4436C1942FCD155
:10079000704710B502F000FAFFF7D4FF10BD00005B
:1007A000E0228021184BD2005B69890013408B4204
:1007B0001DD007D8002B0DD080225200934220D0AC
:1007C000002008E0C02189008B4205D09342F7D178
:1007D0000E4800E00E48704712200E4BDB6C1B0EDB
:1007E000984280410C4B18400C4BC018F3E7122084
:1007F000084BDB6C1B0E98428041094B1840094B9B
:10080000F3E70948E7E7C04600800C40406F40012D
:10081000809FD500B081E00F400D030040420F00E3
:1008200080E5F9FFC0CF6A00C0D8A700034B5A6D1E
:10083000D20702D41A6D0242FCD1704700800C40EE
:10084000022370B50C004360002289780500FFF791
:1008500039FF237862781B071205134322791202AD
:100860001343E27812011343A279002A02D08022B6
:1008700052041343E279002A01D00422134362791F
:10088000002A01D002221343227A002A01D0012239
:100890001343A27812041343EB6070BD03000006FB
:1008A000000F043810B50C0003280ED802F0FEFC2F
:1008B000020E2032080002F0F1FE0F221E498B6862
:1008C00093431032101A1843886010BDFFF761FF80
:1008D000200002F0E3FE0F2217494B6893431032C9
:1008E000101A1843486002F0A7F9FFF72BFFECE756
:1008F000124A9342E9D10420FFF798FF200002F04A
:10090000CDFE0F220C498B6E93431032101A184300
:100910008866DAE70A4A9342D7D14020FFF786FF7C
:10092000200002F0BBFE032203490B6F93431C32ED
:10093000101A18430867C8E700800C4060061000D2
:100940007007160003000005000F013870B50D0098
:10095000092813D802F0AAFC05131F121216191247
:10096000121C00200D4CDB03DE0E002801D0FFF727
:100970005DFF2A0031002000FFF79AFE70BD0020C5
:10098000074CF0E70120074CEDE71020064CEAE7A2
:100990000020064CE7E70020054CE4E708800C4007
:1009A00044800C4058800C4060800C4078800C40A3
:1009B00040800C400F231840013800B5052804D8AA
:1009C00002F074FC051A2D03033F002000BDF02047
:1009D00080221D4B8001DB6A5201034003209342B9
:1009E000F4D08022013892019342EFD0174A9B182D
:1009F000581E8341181DE9E70321134A936A0B40EF
:100A00001800022BE2D006208B42DFD00800012B19
:100A1000DCD0936A0238DB03D8D50830D6E70C2146
:100A2000094A0220936A0B40082BCFD004308B4236
:100A3000CCD00338042BC9D0936A0238DB02C5D569
:100A4000EBE70720C2E7C04600800C4000F8FFFF3C
:100A500010B50400FFF7AEFF1A498C420AD01A4BBA
:100A60009C420CD00300032B2AD8180002F01EFC75
:100A7000180C11140320154B9B6A0340F3E7134B2A
:100A80009B6A1B079B0FEEE702F0E7F803001800D4
:100A900010BD02F0E9F8F9E702F0CEF84308F6E7F6
:100AA0008C4202D0084A9442F1D1084A1020926A3E
:100AB0008C4200D00430C240E9D002F0D1F8E5E722
:100AC0000023E4E702001A0003001C0000800C4031
:100AD000F8239B031840E02310B51B0398424AD02B
:100AE0001AD880239B02984237D003D8002810D010
:100AF000002010BD8023DB02984226D0C0231B03B8
:100B00009842F5D11D48FFF755FF072833D0082834
:100B1000EED102F045F8ECE7B0235B03984223D016
:100B200009D880235B039842E2D11548FFF790FF74
:100B3000144B9B6E0DE0D0235B03984210D0E02352
:100B40005B039842D4D110480BE002F029F80D4B1A
:100B50009B680F221340D840CBE702F06DF8C8E73E
:100B60000748FFF775FFC4E70748FFF771FF054B1C
:100B700003221B6FEEE7FFF713FEBAE706000C0037
:100B800002001A0000800C4003001C00FA2310B57C
:100B9000DB01040008009C4200D21C00094B9C426F
:100BA00000D91C00002802D10748FFF791FF631EFF
:100BB0001818210002F084FB03005A1E9341C01A4A
:100BC000C0B210BD405DC6004081040070B50E7912
:100BD00005000C00002E1FD131001448FFF7D6FF8E
:100BE00006000A23FE226B602178637809061B0148
:100BF0001943A378D2031943E37836021B04134048
:100C00001943FE23DB011E4063793143002B01D0E1
:100C100008231943296070BD00210448FFF7B6FF7F
:100C2000FA200021C001FFF7B1FFDAE7405DC600FE
:100C300010B5002805D10748FFF74AFF002800D16A
:100C40000130054B0549C01802F03AFB0138C0B22B
:100C500010BDC046408104003F420F0040420F00DB
:100C6000054B10B5DA6A054B01201A60FFF7A2FEAA
:100C7000034B187010BDC04600800C4000010020DE
:100C80000401002070B50600042826D8144B02F099
:100C90000DFB0306090C2500DC6AE4B207E0DC6A00
:100CA000240AFAE7DC6A240CF7E7DC6A240E012048
:100CB000FFF780FE0500052801D1FFF76AFD094B0B
:100CC0003602D868C00AC00230430443DC60052DF8
:100CD00003D101F0B1FFFFF735FD70BD1C6BDCE700
:100CE000B081E00F00800C4030B5042813D802F02A
:100CF000DDFA1B1703211300082004230324104DE1
:100D000000291BD02B62002A05D00123A3400D49E6
:100D10000A681A42FCD030BD202010230524EEE7DB
:100D2000802040230724EAE78020802380005B00A6
:100D30000924E4E7012302201C00E0E72862EAE737
:100D400000800C402C800C4010B50F240440012C76
:100D500004D0002C01D0032C1FD910BD881E0328FD
:100D6000FBD802F0A3FA1702111401200324012278
:100D70001100FFF7B9FFFFF70CFD244B5C6201F097
:100D80005BFFFFF7DFFCE8E702200400EFE703204A
:100D90000124ECE700200424E9E7481E0828DCD8F9
:100DA00002F07AFA2A121ADBDB22DBDB05000122D1
:100DB00000231649886A022C21D1154C12042040C8
:100DC000034313438B62C8E7012200201100FFF7A1
:100DD0008BFF00220223ECE7012211001000FFF735
:100DE00083FF00220123E4E704210A4A13680B432E
:100DF000136000220323DCE700221300D9E7120569
:100E00009B001343044A0240DBE7C04600800C40CD
:100E1000FCFFFEFF40800C40F3FFEFFFF8B50E4AE9
:100E20000E4F0120FD6FFA6756220D4E0D4C3368B0
:100E3000FF321A4022620C4A05401178052901D080
:100E4000FFF782FF3368DB0701D402232362002D02
:100E500001D00023FB67F8BD0E58000008800C404D
:100E60000001002000800C4004010020002800D177
:100E700062B67047EFF3108072B6704710B5FFF797
:100E8000F5FF10BD8023F0B51B4A1C4C5B01E358F5
:100E9000A25885B01A401600A36B012703931E4089
:100EA00002230292019300251AE03E4216D03A0036
:100EB000AA401349A36862502A019B18DA68002AE5
:100EC0000CD03B00117A4B4013721368002B05D0F5
:100ED000481E81415268C9B22800984776080135FA
:100EE000002EE2D1039B029E9E43019B012B01D069
:100EF0000197D8E705B0F0BD0C10000000200C40B1
:100F00000810000010B50400FFF7AAFE0423064AEB
:100F100011690B43136130BF002C02D0FFF77EFF35
:100F200010BD01F089FEFBE700ED00E0F7B514000D
:100F300008AA167809AA01931578072C1CD807234C
:100F4000A700BB40B84012490A689A4310430860A2
:100F5000019A21000F48FFF7ABFB320021000E4839
:100F6000FFF7A6FB0123A3400C4A210013620C48A3
:100F70002A00FFF79DFBF7BD27000723083FBF00AE
:100F8000BB40B840074A1168994308431060DFE747
:100F900000610040086100400C610040FC600040BE
:100FA0001061004004610040F0B5002A08D02424FC
:100FB00001254443194E8D40A419002B1CD02561F6
:100FC00024244443154D6419072917D80F268F0090
:100FD000BE406568B5431600BE4035436560002AD3
:100FE00009D101328A40110024224243002B11D042
:100FF0000A4BD2181161F0BD6561E1E70F27084E79
:10100000A5688E19B600B740BD431700B7403D43F1
:10101000A560E4E7014BD2185161ECE700600040A5
:10102000F8FFFF3F202382681A42FCD0C069C0B29B
:10103000704770B5102304000D00A2681A42FCD05E
:1010400040212000FFF79EFBA56270BD002803D061
:10105000012804D0002001E0024B98687047014B42
:10106000D868FBE700000840002804D0012801D11F
:10107000024B19607047024BFBE7C0460C0008406A
:101080000800084010B5020000210248FFF710FBDD
:1010900010BDC0460000084042780378002A01D005
:1010A000022213438278002A01D004221343014A0A
:1010B000136070470000084010B50020FFF7E2FF02
:1010C0000120FFF7DFFF10BD012302681A4206D09E
:1010D0008268920703D482681A42FCD14360704749
:1010E0004A780B78002A01D0022213438A78002A1A
:1010F00001D004221343CA78002A01D008221343E6
:101100000A79002A01D0202213434A79002A01D00B
:10111000402213438A79002A01D010221343CA794E
:10112000097A120309020A4313430122816811421A
:10113000FCD103607047000070B504000125002C4D
:1011400000D170BD220000232A4203D1013352088E
:10115000202BF9D12A009A409443034A9B009B58C4
:10116000002BECD09847EAE708010020C02140227C
:10117000034B49005A501A603E3A5A501A60704761
:1011800000E100E070B504000D00FFF773FE034BB3
:10119000A400E550FFF772FE70BDC04608010020B4
:1011A000054B10B55A6998691040044A10401862FE
:1011B000FFF7C2FF10BDC046FC600040555500005F
:1011C000054B10B55A6998691040044A10401862DE
:1011D000FFF7B2FF10BDC046FC600040AAAA0000A5
:1011E000F7B5144E050173195C7817002000FFF75E
:1011F000C9FFFFF7BBFF0123032F16D0042F05D033
:10120000022F0BD1A85D0193009303E00022A85D9B
:101210000193009222002100FFF788FE0123A340E2
:10122000054A51690B435361F7BD01930093A85DD3
:101230000023EFE70C640000FC60004070470000F2
:1012400010B5034A136801331360FFF7F7FF10BDB1
:101250004803002070B50500044C266823689B1BDA
:10126000AB4200D370BD01F095FCF7E748030020C6
:1012700010B5FFF7A9F901F0DFFCFA21890002F0AF
:101280001FF80C4B0138984212D8C0210A4A0906AF
:1012900050600A48036A1B021B0A0B4303620023C7
:1012A00093600733136001210548FFF74BFB10BD26
:1012B000FEE7C046FFFFFF0010E000E000ED00E0A9
:1012C0000072040010B50A00022903D0042901D0DD
:1012D000012907D1044B000119184978C05C00238B
:1012E000FFF762FE10BDC0460C640000094A000111
:1012F00010B5845C1218537801229A40242363436A
:10130000002903D004495B181A6110BD02495B181B
:101310005A61FAE70C640000006000402423064A8A
:101320000101885C5218434304481B18D86953785C
:10133000D8400123184070470C6400000060004052
:10134000244BF7B51F00A03700221C7F5A77944228
:101350000DD01C685D6800900192954201D18442D5
:1013600009D90099019A641A95411C605D6028337F
:10137000BB42E9D1F7BDDE7F002E06D11E779A6908
:10138000002AF4D001225A77F1E79968DA686418E4
:1013900055410099019A641A95411E695A691C6069
:1013A0005D609446002E0CDD66445E61F32EE6D946
:1013B0000121002264185541F43E1C605D605E61AD
:1013C000DDE7961B5E61F32ED9D901214942CA1788
:1013D000F0E7C0465801002070B5042428252600F7
:1013E0006D422B006343094A9B181A00BD321278E4
:1013F000002A06D01A00B833C032301B1B681168AF
:101400009847013C002CECD170BDC046580100202B
:101410000121494200220B0070B51B4E9419257F13
:10142000002D08D025686468A34202D803D1A942E0
:1014300001D9290023002832A02AEFD10022134E1F
:1014400032704A1C01D15A1C1BD0114A002B01D109
:10145000914200D90E490F4B0F4A1B78002B11D136
:1014600003021B0A136002240C4D41180902AC61EF
:10147000090A0020FFF7F8FD01233370EB691C43D4
:10148000EC6170BD1060EEE75801002050010020B3
:101490009BFFFF00480100204C0100200000084095
:1014A00070B505002826FFF7E5FC00230B49320044
:1014B0005A435218947F002C03D1002D06D1084CBA
:1014C00007E00133042BF2D1064C02E001219177B1
:1014D0002B60FFF7D3FC200070BDC04658010020F0
:1014E000041000F0011000F01A4B70B51C78002CAD
:1014F0002ED10125184829001D70FFF723FA03217A
:101500001648FFF721FC08211548FFF7C7F9290005
:101510001348FFF717FA1348FFF7BEFD0721124BD8
:10152000DA698A43DA619961FFF7C6FD8022C0213A
:101530000E4B520149005A500D481A602100A0225A
:1015400001F017FD0B4B1C700B4B1C700B4B1C6000
:10155000002070BD510100200023020002001A008B
:10156000600610001C6500000000084000E100E07B
:1015700058010020480100205001002054010020A3
:10158000F0B587B00190059116001F00032800D91F
:10159000C9E02825FFF76EFC019B04905D43634B77
:1015A0005D19AB7F002B04D1FFF768FC604807B0E2
:1015B000F0BD002E09D1002F02D00C990198B84738
:1015C0000498FFF75BFC0020F1E75A4CFA226368AD
:1015D000120100930023710CF00380185941FA2284
:1015E0000023AF61520102F077F8059BA860E96023
:1015F000012B50D1FA239B005E43F42358437A3BDE
:10160000301A28616B612821019B01225943474B05
:101610000120591800238D68CE68521973410A6061
:101620004B60029203936B461B7D0877CB770C9B34
:101630000B62414909780029C2D1404D29684B1CF1
:1016400002D02968013129603D4E317800292AD124
:10165000009B3C481902090A01600221039BA16119
:10166000394A0299002B01D1914200D93649009B99
:10167000002059180902090AFFF7F6FC0223E26963
:101680001343E361012333702B68002B98D02B6840
:10169000013B2B6094E701267642F71780197941C8
:1016A000A860E960AFE72B68012BEDD10027019A14
:1016B000273353431D4AD3181F770222E36993430C
:1016C000E361204B1868009B181A204B0002000AA7
:1016D000984200D10020FFF733FEFFF77DFE002F78
:1016E00006D12823019A5343104AD31801221A77AE
:1016F0000098FFF78DFE134E6368326800939B1AC3
:101700001B021B0A00200293FFF7A0FC336801377D
:10171000C01A0B4B00021B78000A002BB4D0029BAE
:101720008342CAD8B0E70A4841E7C04658010020C2
:10173000031000F000000840480100205401002080
:10174000500100204C0100209BFFFF00FFFFFF0025
:10175000021000F010B50400032812D8FFF78AFB2E
:1017600028235C43084B1B199A7F002A03D1FFF7FB
:1017700085FB064810BD00241C77FFF77FFB200087
:10178000F8E70348F6E7C04658010020031000F0D0
:10179000021000F0F0B51F4C85B0FFF76BFBE2695B
:1017A0002369019013401900032291430222A16191
:1017B00013422AD00123184F65683B700392039AA5
:1017C000E369164E9343E3613368E81A0002000AA6
:1017D000FFF7B6FDFFF700FE2800FFF719FE65686A
:1017E00033680020EB1A1B021B0A0293FFF72EFC42
:1017F0003368C01A0A4B00021B78000A002B02D083
:10180000029B8342DBD800233B700198FFF736FB35
:1018100005B0F0BD00000840480100204C01002048
:101820005001002010B51400012804D10B4801F02C
:1018300021FA040004E0022804D1084801F01AFA51
:10184000200010BD032807D1054B18680028F0D0F0
:1018500003685B689847ECE70024F1E72003002069
:10186000F8010020014B18707047C046FD010020B0
:10187000014B18787047C046FD010020014B1870DD
:101880007047C046FC010020014B18787047C046E5
:10189000FC010020F0B51F4B85B01D7807000E003D
:1018A00001AC002D18D1012119701F231A48E370D3
:1018B00025706570A57025716571FFF743F82800E4
:1018C000FFF7B6F92900E0701448FFF75FF921002F
:1018D00020711348FFF77AF909220021200001F056
:1018E00048FB104B0E4D1B782100A370731E9E41C8
:1018F0000D4B28001B786671E3702771FEF7A0FF7F
:1019000001236B6080235B02AA681A42FCD0686ADC
:1019100005B0F0BDFE01002000A20400801A060000
:1019200000200040FC010020FD0100200E4B70B59E
:1019300005001868DC68000CC0B202F09FFE061CAF
:10194000200D02F09BFE041C280002F04DFE011C3D
:10195000201C02F065FC054902F058F9011C301CFE
:1019600002F05EFC70BDC046B081E00FD7A3C8C0D6
:1019700010B5040072B60021FFF7B8FC0421200066
:10198000FFF7A0FC62B610BD10B572B60221FFF7DA
:1019900099FC62B610BD000070B5134D04002878A4
:1019A000FFF7E6FF114B1878002C19D0FFF7ECFF7A
:1019B0000B23C046013B002BFBD12878FFF7E4FF47
:1019C0000B4C2878FFF7AAFC002802D1013C002C20
:1019D000F7D10A23C046013B002BFBD1012070BD8B
:1019E000FFF7C6FFE4E7C0462000002021000020EA
:1019F0002103000070B5124D2878FFF7B9FF114E92
:101A00003078FFF7C1FF0C23C046013B002BFBD110
:101A10002878FFF7B9FF0C4C2878FFF77FFC0028E7
:101A200002D1013C002CF7D13078FFF777FC431E40
:101A300098410A23C0B2C046013B002BFBD170BDC8
:101A400020000020210000202103000010B50F4BD2
:101A50001878FFF799FF0E4C2078FFF795FF207854
:101A6000FFF75CFC002398420DD00A33C046013BCF
:101A7000002BFBD12078FFF77BFF0A23C046013BF8
:101A8000002BFBD10133180010BDC0462000002000
:101A90002100002070B5144D2878FFF769FF134E20
:101AA0003078FFF765FF0A23C046013B002BFBD1CE
:101AB0002878FFF769FF0E4C2878FFF72FFC0028E5
:101AC00002D1013C002CF7D10A23C046013B002B78
:101AD000FBD13078FFF758FF0A23C046013B002BAB
:101AE000FBD1012070BDC046200000202100002055
:101AF0002103000070B505000824013CE809E4B2A8
:101B00006D00FFF749FFEDB2002CF6D1FFF772FF31
:101B1000030001205840C0B270BD70B50600082512
:101B20000024FFF767FF6400013D0443EDB2E4B217
:101B3000002DF6D13000FFF72FFF200070BD000010
:101B4000F7B506000D0001921F00FFF77FFF042488
:101B5000002816D07600F0B2FFF7CCFF00280BD09B
:101B6000019BEC18AC420ED02878FFF7C3FF01357B
:101B70000028F7D1032400E00224002F01D0FFF752
:101B800089FF2000FEBD002F01D0FFF783FF0B244B
:101B90000E4B1878FFF7C2FB002814D1013C002C33
:101BA000EFD00B4D2878FFF7E3FE0A23C046013B38
:101BB000002BFBD12878FFF7E7FE0A23C046013B44
:101BC000002BFBD1E4E70024DBE7C0462100002026
:101BD00020000020F7B506000D0001921F00FFF75E
:101BE00035FF042400283DD0012076003043C0B2E8
:101BF000FFF780FF002830D02C00019B621B013BC7
:101C00009A4205D20020FFF788FF20700134F4E7E4
:101C10000120ED18FFF781FF2870002F01D0FFF79A
:101C200039FF0B24114B1878FFF778FB00281BD1E4
:101C3000013C002C16D00E4D2878FFF799FE0A23A0
:101C4000C046013B002BFBD12878FFF79DFE0A23FD
:101C5000C046013B002BFBD1E4E70224002F01D05A
:101C6000FFF718FF2000FEBD0024FBE72100002045
:101C70002000002070B5094C094D20700800297023
:101C8000FFF782FE2078FFF77FFE2878FFF746FBFC
:101C9000002802D02078FFF741FB70BD2000002013
:101CA0002100002070B5084D2878FFF76DFE074C25
:101CB0002078FFF769FE28780121FFF703FB2078E1
:101CC0000121FFF7FFFA70BD210000202000002055
:101CD0000122054B1A70054B054A1870002313703A
:101CE000044A13707047C046400200203F020020A3
:101CF000420200204402002010B50A4B1A7801234A
:101D0000002A0DD0084A002311781F2908D8074956
:101D1000074C0B78E0540133DBB20B7013700123D6
:101D2000180010BD400200204402002042020020A2
:101D30001F02002010B5074B074C187822780123AA
:101D40000649FFF7FDFE0023054A23701370054A7C
:101D5000137010BD3F020020440200201F0200202B
:101D6000420200204002002010B50C00202900D9BA
:101D70002024012322000749FFF72CFF434258414A
:101D80000022054B40421A700440044BE0B2187028
:101D900010BDC046FF010020410200204302002088
:101DA000064A074913780978994204D90549C85C5D
:101DB00001331370704701204042FBE741020020CD
:101DC00043020020FF010020024B1878024B1B78D1
:101DD000C01A7047430200204102002010B5034B97
:101DE00000211878FFF782FA10BDC0464502002096
:101DF00010B5034B01211878FFF778FA10BDC046E3
:101E000045020020F8B5040008257F2721000D4B6E
:101E1000B9431878FFF76AFA0B4E01213078FFF7C3
:101E200065FA0A4B64001878FFF778FA013D04431D
:101E300000213078EDB2E4B2FFF758FA002DE5D179
:101E40002000F8BD48020020460200204702002082
:101E5000F8B5104C104D114F114E217004213A70FD
:101E600033702870FFF72EFA20780421FFF72AFA42
:101E700038780421FFF726FA30780121FFF722FA9B
:101E800028780121FFF732FA20780021FFF72EFA97
:101E9000F8BDC0464602002045020020480200204E
:101EA0004702002010B50A4B01211878FFF70AFA03
:101EB000084B01211878FFF705FA074B0121187824
:101EC000FFF700FA054B01211878FFF7FBF910BD69
:101ED0004502002046020020480200204702002060
:101EE00010B50400FFF77AFF2000FFF78BFF0020FA
:101EF000FFF788FF0400FFF77BFF200010BD70B5DF
:101F000004000D00FFF76AFF2000FFF77BFF0400CD
:101F10002800FFF777FFFFF76BFF200070BD000080
:101F200070B504004020FFF7D3FE2000FFF7E4FE69
:101F3000FFF700FF1A4BC046013B002BFBD10321EA
:101F40004020FFF711FFFA239B00C046013B002B06
:101F5000FBD1FFF739FF012502281EDDFFF720FF27
:101F6000000284B2FFF71CFF2418FFF719FFA4B288
:101F70002202C3B2134317220A491800D040284254
:101F800000D04B40013A4908072AF6D1DBB20225BE
:101F9000002B02D103339C432500280070BDC046AE
:101FA000F82A00000080980010B54020FFF790FE4E
:101FB000FE20FFF7A1FEFFF7BDFE034BC046013B2D
:101FC000002BFBD110BDC046204E000010B5FFF71E
:101FD000EBFF05240220431E9BB2012B06D8013CD7
:101FE000002C03D0F520FFF79BFFF4E702F046FB3F
:101FF00004F006F900220D4B03F0A6FA00220C4B68
:1020000003F014FD04F04EF90021041C01F01EFB46
:10201000002808D10749201C01F02CFB002803D020
:10202000C024240600E0044C201C10BD00405F3F8B
:10203000000018400000F042000080BF10B5FFF71C
:10204000B3FF0524FFF7B0FF0220431E9BB2012B14
:1020500006D8013C002C03D0F320FFF761FFF4E722
:1020600002F00CFB04F0CCF80D4A0E4B03F06CFAB6
:102070000D4A0E4B03F0DAFC04F014F90C49041C71
:1020800001F0E4FA002808D10A49201C01F0F2FA14
:10209000002800D0084C201C10BD084CFBE7C046AF
:1020A000D7A3703D0AF7653FCDCCCCCCCC6C474074
:1020B000000020C20000F0420000FE420000FEC20C
:1020C00010B5FFF7D7FD002010BD0000F8B5FA24C9
:1020D0000D4B0E4AA400166858689F6815685A6828
:1020E00099688C465968AE4207D26346D01A60435D
:1020F00001F0E6F86C430019F8BDC01B604301F025
:10210000DFF87443F7E7C04610E000E04803002022
:10211000072270B50125831CDA77C31CDD770532F1
:10212000031DDA77214B0200436200231121333271
:102130001370957055720B3A1170D37313745374F6
:102140008D22920042800200092601000400BA326A
:10215000C376837503764377C57546751370144A45
:10216000C031126813480A60043908601248121816
:102170008A6022007032A264A2654032A266763A7A
:10218000E3773000137093740421FFF79BF8290064
:102190003000FFF7ABF8E0780421FFF793F8E07820
:1021A0002900FFF7A3F8200070BDC04633536C0030
:1021B00048030020A08C000080EE360010B50021FE
:1021C0000920FFF793F8C820FFF744F80121092000
:1021D000FFF78CF8FA204000FFF73CF810BD70B50F
:1021E00005000C00C0780021FFF780F87F20204018
:1021F000FFF776FE04000121E878FFF777F820006A
:1022000070BD70B505000C00C07800211600FFF706
:102210006DF8802031002043FFF771FEE87801213E
:10222000FFF764F870BD70B5040000220921FFF7C4
:10223000E8FF3B212000FFF7D2FF40220243D2B249
:102240003B212000FFF7DDFF20253B212000FFF789
:10225000C6FF2842F9D170BD70B504000121FFF717
:10226000BEFF23003C3319780500012911D18128D4
:1022700003D081222000FFF7C4FFFF22122120009B
:10228000FFF7BFFF812D04D02A0001212000FFF7B6
:10229000B8FF70BDF8B504003225012600223100D8
:1022A0002000FFF7AEFF802231002000FFF7A9FFDA
:1022B000812231002000FFF7A4FF2800FEF7CAFFAB
:1022C00031002000FFF78BFF0700C820FEF7C2FF98
:1022D000812F04D00A35822DE0D10120F8BD0123E1
:1022E0003C3423700020F9E7030010B53C331B7821
:1022F0000400012B0BD12021FFF771FF0002E085C4
:1023000021212000FFF76BFFE38D1818E0850020E6
:1023100010BD0000F8B5040001250E0006220121C1
:1023200007230220FFF794FD2000FFF747FF2570E9
:10233000E5762000FFF777FF2000FFF7ABFF2000D6
:10234000FFF7D2FF2A4B0A27186800F0A5FC2000EF
:1023500094221D21FFF755FF0922A31CDA770222E0
:10236000E31CDA77002230331A702000A4321E21D9
:10237000FFF747FF231DDF7731331D7020000C224C
:102380002621FFF73EFF200003223121FFF739FF0E
:102390003A0020003721FFF734FF200012223921B4
:1023A000FFF72FFF320C2000D2B20621FFF729FFE2
:1023B000320A2000D2B20721FFF723FFF2B2200039
:1023C0000821FFF71EFF66626577200087224D21F6
:1023D000FFF717FF2000FF220921FFF712FF20005F
:1023E0003B220B21FFF70DFF142328342370F8BD87
:1023F00048030020F8B505000C002F000121FFF76D
:10240000EEFE2B0044373C703C3319780600002068
:1024100001290ED1812E03D081222800FFF7F1FE81
:10242000222128003A78FFF7ECFE22212800FFF74E
:10243000D6FE3C78241A601E844164B2812E04D0FA
:10244000320001212800FFF7DCFE2000F8BD10B5A6
:10245000C37E018E002B01D1043189B2C9B2FFF7CE
:10246000C9FF10BDF8B503003C331B7805000220FE
:10247000012B19D1052400262B786327012B00D0CE
:1024800012371B212800FFF7AAFEC0192F0040B207
:102490002A37013C38703618002CEDD10521300068
:1024A00000F098FF38702000F8BD030002003633BA
:1024B00019709972323212781A7302003732137817
:1024C000433003700133002013707047030070B570
:1024D0003C331B78002B04D1038E3C2B01D93C23C9
:1024E00003860B00048E5A1A944204D91C78856C1A
:1024F0000133AC54F6E7FFF7AAFFC0B270BD00008D
:10250000F0B5831CDB7F8FB004000F000022072B87
:1025100071D0082B71D0684B049205930121231DC3
:102520002000DD7FFFF75BFE644B01901A682200FC
:102530003C321678012E00D0B7E0812804D08122E9
:1025400031002000FFF75DFE0123AB40079300231D
:1025500006930393033302932000FFF77DFE574B4E
:1025600001211A681B688722643320000A93FFF751
:1025700048FEFFF7ABFD12210B902000FFF72FFE66
:102580000025042318404D4B39D11A680A9991420D
:1025900035D9FFF79BFD0890079803F0C5FD0200B1
:1025A0000B000498059902F0C5FB02000B00002007
:1025B000434902F0BFFB089B0B9A0C900D91981AAF
:1025C00003F0ECFD0022089009910C980D993D4B09
:1025D00002F0BAFF00223C4B02F090F802000B0020
:1025E0000898099901F00CF8002815D11221200053
:1025F000FFF7F5FDC5E7354B8EE7354B8CE71B68DC
:10260000002821D1029B013BDBB20293002B45D075
:10261000002FA1D13D0023E0002DE7D123786335C1
:10262000012B00D012351B212000FFF7D8FD23001D
:1026300045196DB22A331D70069B5B190693039BE7
:10264000012501330393D1E712212000FFF7C7FDD5
:102650000125013FFFB22840002F1BD105000026B5
:102660000399069800F0B6FE23002A331870019BE8
:10267000872B04D0019A01212000FFF7C2FD0F4BE8
:1026800020001B68FFF7E8FD002D00D00226300077
:102690000FB0F0BD002800D15EE7E0E70125DFE7DD
:1026A00020001B68FFF7D8FDF0E7019A872AF7D0D2
:1026B00000250226DEE7C04680841E414803002034
:1026C0000000F03F80842E4100006E408084FE4078
:1026D00080840E41F0B587B00591831CDB7F040038
:1026E0000026072B00D187E0082B00D186E0464F5B
:1026F0000120231DDD7FA84003F016FD02000B0022
:102700003000390002F016FB02000B0000203F49A8
:1027100002F010FB00900191E08D043003F004FD05
:1027200000223B4B01F0EAFF009A019B02F00CFFF4
:10273000059B029003915800230033331A78052338
:102740005B425343401B0B30C018800003F0ECFC8D
:10275000236A06002F480F0018402F4BC018434231
:1027600058414000281A800003F0DEFC02000B00F4
:102770003000390002F0DEFA00F03CFC06000F00E9
:10278000E31CD87F043003F0CFFC32003B0002F0A2
:10279000DBFE0022002306000F0000F031FF0028BE
:1027A0002ED000221D4B3000390001F0A7FF009A07
:1027B000019B02F0C9FE029A039B01F09FFF0022D9
:1027C000174B02F0C1FE174A174B01F097FF00F0BC
:1027D000A5FC00F0A1FFFA21890000F071FD03F0D3
:1027E000DDFC0022094B01F089FF00F095FFC834A1
:1027F00080B2208007B0F0BD0C4F79E70C4F77E72F
:1028000000200649D3E7C04680841E410000F03F07
:102810000000114000FF00FF00F9FFF3000020401E
:1028200080842E412B8716D9CEF7EF3F8084FE405F
:1028300080840E41F0B5437D85B00400002B4BD061
:10284000037E0293002B47D0002303250826039321
:102850000196304F617D3B682000E360FFF750FE3A
:102860003B682361002839D1A37D002B15D03100AE
:10287000013000F04AFA284A237DD35CFF22104041
:102880005843FEF7E7FC3B68617DE3602000FFF7FB
:1028900037FE3B68236100282ED1E37D002B35D025
:1028A0002000FFF7DFFD002816D137002000FFF7DA
:1028B000D9FD0120FEF7CEFC23002A331B78013F0F
:1028C0005BB2FFB259331EDB002FEFD1013D029BFB
:1028D000EDB20393002DBBD105B0F0BD3100012056
:1028E00000F013FA0D4A237DD35C03225343FC32DC
:1028F00010405843FEF7AEFC019B013BDBB2019355
:10290000002BA6D1C9E7002FE0D0E5E7039B002B01
:10291000DCD1E1E748030020220000202D00002048
:1029200010B5040081220121FFF76BFC6420FEF743
:1029300091FC802220000121FFF763FC012120008F
:10294000FFF74DFC8038431E984140B210BD000097
:10295000030010B5BA331B78002B11D00100020020
:10296000084BC4311C680B68BC329C4206D9C0308D
:1029700003600548106005481B180B60106810BD07
:102980000148FCE748030020A08C000080EE3600E0
:102990000300F0B585B001910292BA331B780400B0
:1029A000002B14D0C37E058E002B01D10435ADB2AF
:1029B0002000FFF7CDFFE9B206002000FFF78AFEF6
:1029C000361A04D504203F4B1B6805B0F0BD012129
:1029D0002000FFF704FC03902000FFF73DFC2300DC
:1029E0003C331978012903D181222000FFF709FC2B
:1029F000230000222500270038331A7039352B7840
:102A00004C37934248D101992000FFF74EFD2B78B7
:102A1000061E3B7004D102992000FFF757FD46B215
:102A200025001022413529780A432A70E37F002BC4
:102A300002D018230B432B7080220D212000FFF7BA
:102A4000E0FB002E36D1E37E002B19D1230040336A
:102A50001A7831002000FFF7D4FB2A7831002000DB
:102A6000FFF7CFFB230042331A7831002000FFF735
:102A7000C8FB230043331A7831002000FFF7C1FB65
:102A80000025238EAB4215D9A36C00215A5D20008E
:102A9000FFF7B7FB0135F4E7012B04D122004432E4
:102AA0001378013313702000FFF7D1FC2B78060058
:102AB0003B70B5E72000039A0121FFF7A2FBF0B2BB
:102AC00083E7C0464803002070B504000D00FFF7FF
:102AD0003FFF2300BA331B78BC34002B02D023689D
:102AE0005D1B2560206870BDF7B51C4E01913368F1
:102AF0000400009303003C331D78012D18D1FFF72B
:102B0000ABFB832229002000FFF77BFB1221200072
:102B1000FFF765FB082738420CD1019A009933680A
:102B200052189A4206D912212000FFF758FBF2E70B
:102B30000020022503070BD523000025BA331B789C
:102B4000AB4205D02300C83319882000FFF7BCFF33
:102B50002000FFF781FB2800FEBDC046480300208F
:102B600070B5040004A80588402B00D940232386B3
:102B70002000FFF70DFF002803D129002000FFF7F8
:102B8000B3FF70BD10B50248FFF7C2FA10BDC046D2
:102B90004C020020704700000048704700366E016C
:102BA000F0211D4A8901D36A0B40802149018B42E3
:102BB0002FD0802189018B4205D0802109018B42D1
:102BC00004D1164B00E0164B18687047D368E0221A
:102BD000D200134080229200934214D007D8002BD9
:102BE00015D0013AFF3A93420FD00020EDE7C02202
:102BF0009200934205D00132FF329342F5D1094849
:102C0000E3E70948E1E70948DFE70948DDE7094864
:102C1000DBE780200002D8E700800C40380000206D
:102C20003C000020406F4001809FD500C0D8A70025
:102C300040B56400804F120010B5FFF7B1FF0F22BE
:102C4000034B5B681340D840024B186010BDC04670
:102C500000800C404C030020704780200002704729
:102C6000FA20800070470000014B18687047C0468A
:102C70003C000020F8B507000C0000258E18B44277
:102C800007D03B6821781B683800984701342D181D
:102C9000F5E72800F8BD0000002801D0014B1860BE
:102CA0007047C0461803002070B50C4D2E68002EEA
:102CB00000D10B4E0B49300000F072FC0A4C300082
:102CC0004C43084900F086FB01000848484320189F
:102CD00001D5074BC018286070BDC04618030020FE
:102CE00024D95B071DF30100A7410000ECF4FFFFAE
:102CF000FFFFFF7F10B5041E05D0FFF7D5FF2100B1
:102D000000F04EFC0C00200010BD10B504008842FD
:102D100003DA081AFFF7EEFF2418200010BD9422F2
:102D200003695200985C2822FF329B5CC01AC0B233
:102D30007047036810B59B6804009847002807D0C7
:102D400028222369FF329A5C9B180833D87F10BD74
:102D500001204042FBE70369D81D0633C17FDA7FBB
:102D60009142FBD17047036810B59B6804009847F7
:102D700000280FD028222369FF32995CC9B2481C71
:102D8000C0B298545B1821690833D87F8B5CDBB2E2
:102D90008B5410BD01204042FBE710B5C21D841DBD
:102DA000E17FD27F030091420DD0E27F0068D2B272
:102DB000511CC9B29B18E1775979FEF73AF91F22E5
:102DC000E37F1340E37710BD70B594267600835DF2
:102DD000821D0133D27FDBB2040093420DD0855DAA
:102DE000EDB26B1CDBB283550068FEF71BF9651969
:102DF0000835E877A35DDBB2A35570BDFA22002346
:102E000092008260044A43600832026003610362F8
:102E1000436241617047C046206500000369DA1DC6
:102E20000633D07FD97F884204D3D27FD87F801ADF
:102E30001F307047D87FD37FC01A0138F9E770B5CB
:102E400004000D002000FFF7E9FF0028FAD02369F5
:102E5000D81DC27FD2B2511CC9B2C1771F219B18A5
:102E60005D7123690733DA7F0A40DA77226901232B
:102E700010791168022806D1886B1843886312689C
:102E80001363012070BDC86C1843C8641268536492
:102E9000F7E70000094B10B5DC6A5C63630704D5F3
:102EA000074B084A1B6810689847E30704D5064B90
:102EB000044A1B681068984710BDC046004008408F
:102EC000400000201C0300204400002010B50249EF
:102ED0000248FFF793FF10BD004008402003002088
:102EE000014B18687047C04648000020084B10B5D9
:102EF0000400002B02D0002100E000BF054B186841
:102F0000836A002B00D098472000FDF791FBC04654
:102F1000000000004065000070B500260C4D0D4C0F
:102F2000641BA410A64209D1002603F04BFA0A4DF7
:102F30000A4C641BA410A64205D170BDB300EB5827
:102F400098470136EEE7B300EB5898470136F2E7B1
:102F5000AC000020AC000020AC000020B800002035
:102F6000002310B59A4200D110BDCC5CC45401338B
:102F7000F8E703001218934200D17047197001332B
:102F8000F9E7000010B5034B0A000100186800F0D3
:102F90001FF810BD4800002010B5034B0A000100C7
:102FA000186800F003F810BD48000020002370B539
:102FB000064C0500080011002360FDF759FB431C77
:102FC00003D12368002B00D02B6070BD500300207C
:102FD000002370B5064C0500080011002360FDF7C2
:102FE0001FFB431C03D12368002B00D02B6070BD56
:102FF00050030020434AF0B54F4691464B005B0D0D
:1030000099444646D6464A46C0B505000C000E0017
:1030100088460700132A25DC002A56DB3A4B134169
:103020009A460B0052461340034316D0374A384B9A
:1030300001F064FB0022002300F0E2FA00280AD02D
:10304000002C04DD80234A465B0313419844464626
:10305000534600279E43380031001CBC90469946D9
:10306000A246F0BD332A08DD8023DB009945F4D168
:1030700002000B0001F042FBEFE7264A94460122D2
:1030800063445242DA4092460242E6D01F4A204B45
:1030900001F034FB0022002300F0B2FA0028DAD05D
:1030A000002C0EDD4B46142B22D034234A4601243B
:1030B0009B1A9C406519BD4222D201239C462F00D9
:1030C000E044534646469F43C5E7104A104B01F083
:1030D00015FB0022002300F093FA0028BBD0002C3F
:1030E0000ADB2C4300270026002CB4D00A4EB2E79E
:1030F000133B9C46E044E4E7802600273606AAE717
:103100002F00DEE701FCFFFFFFFF0F009C7500882A
:103110003CE4377EEDFBFFFF0000F03F474AF0B58F
:103120004F4691464B005B0D99444646D6464A466B
:10313000C0B505000C000E0088460700132A27DCE6
:10314000002A4BDB3E4B13419A460B00524613407C
:10315000034318D03B4A3C4B2800210001F0CEFA33
:103160000022002300F04CFA002847D0002C04DA9B
:1031700080234A465B031341984446465346002742
:103180009E43380031001CBC90469946A246F0BDD3
:10319000332A08DD8023DB009945F4D102000B00BF
:1031A00001F0ACFAEFE7294A944601226344524207
:1031B000DA4092460242E6D0224A234B2800210000
:1031C00001F09CFA0022002300F01AFA002815D022
:1031D000002C1EDB534646469F430FE0194A1A4B0C
:1031E0002800210001F08AFA0022002300F008FAEA
:1031F000002803D0002C04DB002700263800310013
:10320000C1E76400640825430027002DF6D0104E66
:10321000F4E74B46142B0BD03422D21A01239340EF
:103220005D19BD4208D201239C462F00E044D1E73E
:10323000133B9C46E044CDE72F00CBE701FCFFFFAA
:10324000FFFF0F009C7500883CE4377EEDFBFFFF1D
:103250000000F0BF43001B0E7F3B10B5011C162B76
:103260000BDC002B0EDB0B4C1C41044204D08022F3
:10327000D2031A411018A04310BD802BFCD100F0DE
:103280002BFBF9E7C00FC0070133F5D1FE239B05E7
:103290001843F1E7FFFF7F0002B471464908490077
:1032A000095649008E4402BC7047C04602B47146BC
:1032B00049084900095C49008E4402BC7047C04679
:1032C000002243088B4274D303098B425FD3030A65
:1032D0008B4244D3030B8B4228D3030C8B420DD378
:1032E000FF22090212BA030C8B4202D31212090206
:1032F00065D0030B8B4219D300E0090AC30B8B4244
:1033000001D3CB03C01A5241830B8B4201D38B03F1
:10331000C01A5241430B8B4201D34B03C01A524196
:10332000030B8B4201D30B03C01A5241C30A8B42D9
:1033300001D3CB02C01A5241830A8B4201D38B02C4
:10334000C01A5241430A8B4201D34B02C01A524168
:10335000030A8B4201D30B02C01A5241CDD2C309DA
:103360008B4201D3CB01C01A524183098B4201D356
:103370008B01C01A524143098B4201D34B01C01A41
:10338000524103098B4201D30B01C01A5241C308B9
:103390008B4201D3CB00C01A524183088B4201D328
:1033A0008B00C01A524143088B4201D34B00C01A14
:1033B0005241411A00D20146524110467047FFE780
:1033C00001B5002000F0F0F802BDC0460029F7D09A
:1033D00076E7704703460B437FD4002243088B42B5
:1033E00074D303098B425FD3030A8B4244D3030B8C
:1033F0008B4228D3030C8B420DD3FF22090212BA51
:10340000030C8B4202D31212090265D0030B8B42CC
:1034100019D300E0090AC30B8B4201D3CB03C01AB6
:103420005241830B8B4201D38B03C01A5241430B91
:103430008B4201D34B03C01A5241030B8B4201D381
:103440000B03C01A5241C30A8B4201D3CB02C01AEC
:103450005241830A8B4201D38B02C01A5241430A64
:103460008B4201D34B02C01A5241030A8B4201D353
:103470000B02C01A5241CDD2C3098B4201D3CB01FA
:10348000C01A524183098B4201D38B01C01A5241A9
:1034900043098B4201D34B01C01A524103098B42AD
:1034A00001D30B01C01A5241C3088B4201D3CB0098
:1034B000C01A524183088B4201D38B00C01A52417B
:1034C00043088B4201D34B00C01A5241411A00D22B
:1034D00001465241104670475DE0CA0F00D0494294
:1034E000031000D34042534000229C4603098B4204
:1034F0002DD3030A8B4212D3FC22890112BA030A8C
:103500008B420CD3890192118B4208D3890192110D
:103510008B4204D389013AD0921100E08909C30992
:103520008B4201D3CB01C01A524183098B4201D394
:103530008B01C01A524143098B4201D34B01C01A7F
:10354000524103098B4201D30B01C01A5241C308F7
:103550008B4201D3CB00C01A524183088B4201D366
:103560008B00C01A5241D9D243088B4201D34B0081
:10357000C01A5241411A00D20146634652415B10C3
:10358000104601D34042002B00D5494270476346A4
:103590005B1000D3404201B5002000F005F802BDE9
:1035A0000029F8D016E770477047C0468446101CC3
:1035B00062468C46191C634600E0C0461FB501F008
:1035C0005BFF002801D40021C8421FBD10B501F0E7
:1035D000B3FE4042013010BD10B501F04DFF002890
:1035E00001DB002010BD012010BDC04610B501F068
:1035F00043FF002801DD002010BD012010BDC046A2
:1036000010B501F0D5FE002801DC002010BD01201E
:1036100010BDC04610B501F0CBFE002801DA002035
:1036200010BD012010BDC0468446081C6146FFE75E
:103630001FB500F073FC002801D40021C8421FBD53
:1036400010B500F0F5FB4042013010BD10B500F0A0
:1036500065FC002801DB002010BD012010BDC04624
:1036600010B500F05BFC002801DD002010BD01203A
:1036700010BDC04610B500F003FC002801DC00209E
:1036800010BD012010BDC04610B500F0F9FB0028A8
:1036900001DA002010BD012010BDC0461C2101230D
:1036A0001B04984201D3000C10391B0A984201D325
:1036B000000A08391B09984201D30009043902A203
:1036C000105C40187047C04604030202010101016A
:1036D0000000000000000000002B11D1002A0FD1D3
:1036E000002900D1002802D00021C943081C07B4DA
:1036F000024802A14018029003BDC046ADFEFFFF84
:1037000003B4684601B5029800F024F8019B9E4678
:1037100002B00CBC7047C04670B500220C4B0400D0
:103720000D00FFF777FF002804D12000290002F0E8
:10373000C5FC70BD064B00222000290002F076F97E
:1037400002F0BCFC80231B069C466044F1E7C046A7
:103750000000E041F0B54F464646D646C0B50400ED
:1037600082B00D00914698468B422FD82CD041460E
:10377000484602F01BFE29000600200002F016FE5B
:10378000331A9C46203B9A4600D576E04B4652467B
:1037900093401F004B46624693401E00AF4228D81C
:1037A00025D05346A41BBD41002B00DA7BE000224C
:1037B0000023009201930123524693400193012379
:1037C00062469340009318E08242D0D90022002341
:1037D000009201930A9B002B01D01C605D60009851
:1037E000019902B01CBC90469946A246F0BDA34286
:1037F000D7D900220023009201936346002BE9D021
:10380000FB079846414672080A437B0866460EE06D
:10381000AB4201D1A2420CD8A41A9D410120241927
:103820006D410021013E24184D41002E06D0AB42CF
:10383000EED9013E24196D41002EF8D1009801996E
:10384000534600196941002B23DB2B005246D3401D
:103850002A006446E2401C0053461500002B2DDB75
:1038600026005746BE40330026006746BE40320061
:10387000801A994100900191ACE7624620239B1A7F
:103880004A46DA406146130042468A4017001F4309
:1038900080E7624620239B1A2A0066469A4023004E
:1038A000F3401343D4E76246202300219B1A0022F1
:1038B000009101920122DA40019280E720236246C2
:1038C00026009B1ADE402F00B0466646B7404646AB
:1038D0003B003343C8E7C046F8B54746CE464302EF
:1038E0005B0A4400C20F9C464800DD004B02240ED8
:1038F0005B0A000E80B5984626009146C90FDB0092
:10390000271A8A4229D0002F15DD00284AD1002B22
:1039100000D095E0ED08FF2C00D188E06B025B0A37
:10392000E6B25B02F605580A3043D20710430CBCDE
:1039300090469946F8BD002F00D087E0601CC0B2C9
:10394000012800DCB6E0EE1A720100D5C5E0002EB9
:103950003DD1002200260023E3E7002F00DC96E0A3
:1039600000285DD0FF2C60D08022D20413431B2F8F
:1039700000DDECE02022D21B18009340F8405A1ED4
:1039800093410343ED186B017BD50134FF2C00D12B
:10399000B7E0012207262A406B089A4D1D401543C7
:1039A0002E4029E0FF2CB5D08022D20413431B2FD8
:1039B00000DDB2E02022D21B19009340F9405A1ECC
:1039C00093410B43ED1A6B015BD5AD01AE0930009D
:1039D000FFF764FE05388640844265DC041B330033
:1039E00020200134E340041BA640751EAE41334342
:1039F00007261D0000241E4001224B461A40002EBF
:103A000004D00F232B40042B00D004356B0100D4CD
:103A100080E70134E6B2FF2C2FD1FF26002380E798
:103A2000002B52D1FF2C00D074E70A00ED08002DC6
:103A3000F3D08023DB032B435B025B0AFF2670E796
:103A4000013F002FBED0FF2CB1D163E7002C47D03F
:103A5000FF2869D08024E4047A4225431B2A00DD34
:103A6000C5E02C002026D440B21A95406A1E95412C
:103A700025435D1B04008946A5E7AB015B0A50E7BF
:103A8000002401224B461A406B07BAD142E7002FAF
:103A90003BD10134E0B201284ADDFF2CBDD007261E
:103AA000ED186D082E40A7E70723574D241A35401F
:103AB0001E40A1E7002C1BD1002D6ED1002B00D1A0
:103AC0009AE00A001D003C0024E7013F002F00D1CE
:103AD00058E7FF2C00D04AE7A7E75E1B894676E748
:103AE000002D1CD10A00FF281FD004001D0011E783
:103AF000002D5DD1002B17D180230022DB03FF2690
:103B00000FE70A00FF2600230BE7002C21D1002D30
:103B100066D1FF28E9D11D0087E7012352E77A1C0F
:103B2000A7D0FA43FF2899D10A001D00FF24F1E62F
:103B3000002E21D1002D4FD0002B4CD0ED186B0161
:103B40009ED5314B07362E4001241D4054E70123FA
:103B500018E7FF28DFD08024E4047F4225431B2F91
:103B60004DDC2026F61B2C00B540FC406A1E95411A
:103B70002543ED18040006E7002DCCD0002B00D122
:103B800053E780216046C903084203D040460842FB
:103B900000D11D000121114047E7002B00D1B9E6FB
:103BA000EA1A500125D507265D1B2E40894623E7DA
:103BB000FF24002B00D1ADE680226046D2031042E4
:103BC00004D04046104201D11D00894601224B46D7
:103BD000FF241A409EE62B00DD080A0000249DE623
:103BE0007A1CC6D0FF43FF28B9D11D001DE701256F
:103BF0003FE7151E00D044E70022002391E601258F
:103C0000B7E7C046FFFFFF7DFFFFFFFBF8B5574654
:103C10004E464546DE464402E0B546008846640A04
:103C2000360EC70F002E63D0FF2E24D08023E40071
:103C3000DB041C43002399469B467F3E4346424695
:103C40005D02D20F5B006D0A1B0E9046924665D056
:103C5000FF2B55D080220021ED00D2047F3B15437D
:103C6000F61A43464A467B400F2A00D98DE06D483C
:103C7000920082589746002C54D108239946063B5F
:103C8000FF269B46DAE70025534602291BD003296D
:103C900000D1BFE0012928D030007F30002820DD8E
:103CA0006A0704D00F222A40042A00D004352A01D2
:103CB00003D530005C4A80301540FE2803DCAC019F
:103CC000640AC2B201E0FF2200246402D205600A45
:103CD000DB07104318433CBC90469946A246AB46CE
:103CE000F8BD0122101A1B287CDD00220024ECE71D
:103CF000002C1DD104239946033B00269B469DE7DB
:103D0000FF3E002D20D1022143464A467B400A4314
:103D10000F2AD8D84548920082589746002D19D1CD
:103D20000121F1E70C239946093BFF269B4685E7D5
:103D30002000FFF7B3FC7626431F9C400023764209
:103D4000361A99469B4679E74A4603231A43914619
:103D5000032186E72800FFF7A1FC431F36189D408A
:103D6000763600217DE780240023E403FF22ACE7C0
:103D700000258023DB031C4228D01D4226D12B4383
:103D80005C02640A4346FF229FE762016C01A24283
:103D900024D21B210025013E012710006D00520096
:103DA000002801DB944201D8121B3D430139002950
:103DB000F3D11400621E944125436DE7BA4659467B
:103DC00025005346022900D061E77CE78023DB030E
:103DD0001C436402640A3B00FF2276E7121B1A218F
:103DE0000125D9E79E362A00B5402C00C240651E49
:103DF000AC411443620704D00F222240042A00D0B1
:103E00000434620103D4A401640A00225DE70122A4
:103E100000245AE78024E4032C436402640AFF224E
:103E200053E7C046A4650000FFFFFFF7E46500000C
:103E300070B542004E024C0045026D0A120EC30FCF
:103E4000760A240EC90FFF2A0FD0FF2C11D00120B3
:103E5000A24200D070BDB542FCD18B420DD0002AE9
:103E6000F8D12800451EA841F4E70120002DF1D12A
:103E7000EBE70120002EEDD1E9E70020EAE7C0469C
:103E800070B54A004E02450244006D0A240EC30F6D
:103E9000760A120EC90FFF2C15D0FF2A0ED0002C67
:103EA00015D1002A01D1002E1CD0002D14D08B4238
:103EB00027D00220013B1840013870BD002EEED003
:103EC00002204042F9E7002DFAD1FF2A0ED0002A45
:103ED0000ED1002EEDD00BE00123013999430800EB
:103EE0000130EAE70020002DE7D0E2E7002EE7D11D
:103EF0008B42DED1944205DD0221581E0840013874
:103F0000DBE70024A24204DCB542D2D80020B5424F
:103F1000D3D2581E012398430130CEE730B542007A
:103F200044024D02C30F4800640A120E6D0A000ECF
:103F3000C90FFF2A12D0FF280CD0002A12D1002866
:103F400019D1002D17D1002C2BD00220013B184095
:103F5000013826E0002DF0D0022022E0002CFBD119
:103F6000FF281FD000281FD1002D1DD10220013BAA
:103F70001840013815E0002C0ED08B42E5D100220C
:103F8000904204DCAC42E0D80020AC4209D2581E7A
:103F900001239843013004E00123013999430800CB
:103FA000013030BD002DD7D18B42CED18242E7DD2A
:103FB0000221581E08400138F3E7C046F0B54E46CE
:103FC00057464546DE46E0B543025B0A450083B0EE
:103FD0000F1C99462D0EC60F002D57D0FF2D24D053
:103FE0008020DB00C0041843002381469A469B468C
:103FF0007F3D7C027A00FB0F640A120E984623D0A4
:10400000FF2A4BD0E30080240020E4047F3A1C43C5
:10401000AD186B1C47460193534677403A000F2B6F
:1040200048D87D499B00CB589F46002B00D085E0A7
:1040300008339A46063B9B467C027A00FB0FFF251D
:10404000640A120E9846DBD1002C00D090E0524654
:1040500001231A4392460120DBE74C4658461700DD
:10406000022824D0032800D1CFE000220023012819
:104070004DD15802D205400AFF071043384303B020
:104080003CBC90469946A246AB46F0BD002B5BD1A6
:1040900004239A46033B00259B46AAE7FF35002CE4
:1040A00060D1524602231A4392460220B1E7FF2212
:1040B0000023DEE74B461B0C9C464B462604360C81
:1040C000180461463300220C6446000C43434E43FF
:1040D0005043544380191A0C1218964203D9802178
:1040E00049028C4664441B041B0C1004C018830155
:1040F0005E1EB341800E1843130C1B199B01034332
:104100001C00230179D5012362081C401443019A45
:104110007F32002A4DDD630704D00F232340042B98
:1041200000D00434230103D53C4B019A1C4080325B
:10413000FE2ABCDCA3015B0AD2B29AE70C239A46A2
:10414000093BFF259B4654E71800FFF7A7FA4A46AC
:10415000431F76259A4000236D4291462D1A9A46B8
:104160009B4646E7524603231A439246032050E7F4
:104170002000FFF793FA431F2D1A9C40763D002044
:1041800047E780230027DB03FF2272E7424666E70A
:104190004C463200584662E780234A46DB031A4207
:1041A00022D01C4220D123435B025B0A4746FF22F8
:1041B0005FE701239A1A1B2A21DC23000199D340CF
:1041C0009E318C401A0023005C1EA34113435A0702
:1041D00004D00F221A40042A00D004335A0111D40B
:1041E0009B015B0A002244E780234A46DB0313431A
:1041F0005B025B0A3700FF223BE7019587E700225D
:10420000002336E70122002333E78023DB03234327
:104210005B025B0AFF222CE724660000FFFFFFF72A
:10422000F8B54746CE464400C20F80B54702480263
:10423000400A8446664648007F0A240EF6002500A0
:104240009046FB00000EC90FB146FF2800D185E063
:1042500001267140261A914257D0002E43DD0028D6
:1042600000D07FE04946002900D1AAE0013E002E9F
:1042700000D0F7E05B1A5A0100D48BE09B019C0947
:104280002000FFF70BFA05388440854200DDD3E0BB
:10429000451B230020200135EB40451BAC40621E2E
:1042A00094412343072400251C40012241460A4033
:1042B000002C04D00F211940042900D004335901E7
:1042C00000D480E00135ECB2FF2D00D0A3E0FF2444
:1042D00000235B02E405580AD207204310430CBCBC
:1042E00090469946F8BD002E74D1601CC0B20128DA
:1042F00000DCA7E04A469C1A620100D5B6E0002C1B
:10430000BED1002200240023E3E7002E00DC85E07C
:10431000002846D0FF2C49D080224846D2041043C2
:10432000814601221B2E09DC20204C46801B844044
:104330004A462000F240441EA04102439B185A0105
:1043400028D50135FF2D00D1A8E00122072494498A
:104350001A405B080B4013431C40A6E7002E00D018
:1043600078E775E7FF2C54D080224946D2041143E8
:10437000894601221B2E09DC20214846891B8840E2
:104380004A460100F240481E81410A439B1A5A01E5
:1043900000D573E7012241460A40590700D089E75A
:1043A00011E04846002858D1FF2C0CD1DB08002B27
:1043B00000D18CE78020C00303435B025B0AFF242B
:1043C00087E7FF2C25D0DB08FF2DF0D05B025B0ACE
:1043D000ECB27EE7002C4DD0FF2818D08024E404F6
:1043E000724223431B2A00DDC4E01C002025D44078
:1043F000AA1A93405A1E934123434A460500D31AF2
:10440000884638E7721CF8D0F243FF28EAD10A0048
:104410004B46FF25D7E79B015B0A5AE7002E41D1A7
:10442000651CE9B2012945DDFF2D00D14FE70724C6
:104430004B445B081C4038E707225A4B2D1A234097
:10444000144032E7002C1DD1002B7AD14B46002BB3
:1044500000D191E00A000025B5E7013E002E19D1F8
:104460004B446CE7FF2C84D1FF25ACE74A468846D5
:10447000D41A05E7002BC5D10A00FF28C8D00500D3
:104480004B46A0E7002B49D14B46002B77D00A00C2
:10449000FF2598E7FF2C00D043E787E70A00FF24B9
:1044A000002316E7002C15D1002B57D1FF28E6D1A9
:1044B0004B467BE7002C20D1002B57D049460029E2
:1044C00053D04B445A0168D50724364A1C40012575
:1044D0001340EAE6FF28EBD08022D2047642134351
:1044E0001B2E53DC2025AD1B1A00AB40F2405C1E96
:1044F000A34113434B44050021E7002BD8D0494684
:10450000002900D152E78021C9030F4200D14DE7B5
:104510006046084200D049E74B4647E74846FF253A
:10452000002800D14FE78022D203174204D0604612
:10453000104201D14B46884601224146FF250A40E0
:1045400041E7484600281FD01A1A500120D54A4694
:104550000724D31A1C4088460025A6E6741CC9D03F
:10456000F643FF28BCD14B4620E799464B46002531
:10457000DB082BE7012340E700220023A9E6802384
:104580000022DB03FF24A4E600251CE70123B1E79A
:10459000002AF1D013000025FCE60025FAE6C0460B
:1045A000FFFFFF7DFFFFFFFB41024200C30F490AEF
:1045B000120E00207E2A0DD99D2A0CD880200004DE
:1045C0000143952A0ADC9620821AD1404842002BEA
:1045D00000D108007047034A9818FBE7963A9140CB
:1045E000F4E7C046FFFFFF7F70B500283DD0C3173A
:1045F000C5185D40C40F2800FFF750F89E22121A1C
:10460000962A07DCD2B2082833DD083885406802D4
:10461000400A23E0992A0BDD052329001B1AD94003
:1046200003001B339D402B005D1EAB4119430D0061
:10463000052801DD431F9D402B000F490B406E07ED
:1046400009D00F263540042D05D004335D0102D575
:104650009F220B40121A9B01580AD2B24002D20587
:10466000400AE4071043204370BD002400220020CC
:10467000F4E76802400AF1E7FFFFFFFB70B5041E94
:1046800034D0FFF70BF89E22121A962A07DCD2B21A
:1046900008282EDD083884406002400A21E0992A6B
:1046A00009DD030021001B3399404B1E994105236E
:1046B0001B1ADC400C43052801DD431F9C402300EE
:1046C0000D490B40650709D00F252C40042C05D05F
:1046D00004335C0102D59F220B40121A9B01580A39
:1046E000D2B24002D205400A104370BD0022002021
:1046F000F7E76002400AF4E7FFFFFFFBF0B54F4623
:104700004646D6460C000903C0B5490A470F5E006D
:1047100039431F03DB0F9C4665007B0A570F1F437D
:104720006D0DE40F760DA146C000B846D200AB1B5C
:1047300064457BD0002B5FDD002E00D0A4E03E005E
:10474000164300D112E15E1E002E00D09EE1871AB2
:104750004346B84280410125C91A4042091A0B025A
:1047600000D431E149024E0A002E00D16EE1300042
:10477000FEF794FF0300083B1F2B00DD61E12022C0
:104780003900D21A9E40D1409F400E439D4200DD29
:1047900051E15D1B6B1C1F2B00DD7CE12021C91A40
:1047A0003D0030008F408840DD40791E8F41310050
:1047B00007222843D940002507433A40002A09D060
:1047C0000F233B40042B05D03B1DBB42BF417F4222
:1047D000C9191F000B0200D426E26A1CC64B5505FE
:1047E0006D0D9A4200D106E1C44AFF080A40530702
:1047F00052023B43120B8EE0002B00D0B8E06B1C42
:104800005B055B0D012B00DC30E1871A4346B842A3
:10481000B641CB1A76429E1B330200D54CE13B00D9
:104820003343A1D100220024002570E0002B00DCDE
:10483000E5E0002E00D183E0AF4EB54260D0802687
:1048400036043743B846382B00DC3EE14346134379
:104850001F007A1E97413F18874280414042091845
:104860000B0200D4B0E0A44B01359D4200D1C3E05F
:10487000A24A7B080A4001210F401F435108D30779
:1048800007221F433A4099E79B4EB54238D0802615
:1048900036043743B846382B00DDDCE01F2B00DC44
:1048A00030E11E004746203EF740BC46202B04D096
:1048B0004026F31A46469E403243170063467A1E4E
:1048C00097411F43CCE0002B00D104E24346134341
:1048D00000D159E14B07C00818438023C9081B03C6
:1048E000194208D04546ED081D4204D14346D00880
:1048F000590708432900420FC9007F4D1143C000EA
:104900004B07CA087C49C00803438D4268D0120394
:104910006D05120B6D0D002112031800130B0A0D0B
:1049200012051A43764B2D0513402B435B00E40719
:104930005B08234319001CBC90469946A246F0BD73
:104940003E00164312D05E1E002E00D000E18718F4
:104950008742804141444042091801250B0233D56A
:10496000022585E764463300414610001D00C7E775
:10497000002D00D0DAE00C000443F3D05C1C00D121
:104980009FE15D4CA64200D12FE1DB43382B00DDD7
:1049900066E11F2B00DD83E120240500E41A0F00EF
:1049A000DD40D940A0404346A7405B1A441EA041C9
:1049B00098462F433843171ABA429241434652420F
:1049C000991A64463500CAE607223A40002A00D008
:1049D000F6E64B07CA084849FF083B438D4296D18B
:1049E0001900114300D19EE1802109030A431203FB
:1049F000120B414D8FE71500002200238BE7002B9F
:104A000000D0C7E06B1C5F057F0D012F00DCF1E0DB
:104A1000394DAB4200D1B9E085180A008542894181
:104A20004244494251180722CF076D082F434908D5
:104A30003A401D00C2E607223049ED1A31403A40A3
:104A4000BCE63E002838864000279FE63800FEF787
:104A500025FE20308EE6434613431F007A1E974101
:104A6000C71BB84280414042091A78E60E003B005D
:104A700006431343002D61D1002E00D0F4E0002B3B
:104A800000D11BE164463900100039E71A4FBB42E0
:104A90007AD03300FFE630001F3DE840202B03D0E2
:104AA0004021CB1A9E4037437B1E9F41072207437C
:104AB0003A400021002589E7171A4346BA42B64119
:104AC000591A76428E1B64464EE61F2B00DDADE080
:104AD00020264746F61AB740B9461700B246DF40CF
:104AE0004E463E4337005646B240561EB24117432B
:104AF0004246DA408918AEE6FF070000FFFF7FFF5D
:104B0000FFFF0F8020264746F61AB740B946170028
:104B1000B246DF404E463E4337005646B240561E30
:104B2000B24117434246DA40891A99E77F4CA642C0
:104B30005BD0802424045B42214327E7002E0CD164
:104B4000002B00D1CBE0644639001000774DD7E64A
:104B5000764FBB4218D0330075E6002B14D04B07BC
:104B6000C00818438023C9081B03194207D0FC085A
:104B70001C4204D17907D0080843E14621004C4685
:104B8000420FC9001143C000684DB9E61D00002264
:104B90000023C0E6002D5BD10D00054300D1E2E605
:104BA0005D1C00D1B0E0614DAE421FD0DB43382B1D
:104BB00071DC1F2B00DD96E020250F00ED1AAF40C1
:104BC000B9460700AA46DF404D463D432F005546F3
:104BD000A840D940451EA84188440743BF189742C2
:104BE00092415142414435003AE66446350041461F
:104BF000100085E60B000343002D00D063E6002B78
:104C0000F5D04346134300D17AE6871887428041A6
:104C100007224144404209183A400B0200D4D5E62D
:104C2000434B01351940C9E5380069E61E00474687
:104C3000203EF740BC46202B04D04026F31A4646BF
:104C40009E403243170063467A1E97411F4302E697
:104C5000364DAE42CAD080252D045B422943A6E7DB
:104C60000843411E8841A6E6002B00D148E6871A7A
:104C70004346B842B641CB1A76429E1B33024BD50F
:104C8000171A4346BA429241591A5242891A0722C8
:104C900064463A4092E501430F00791E8F419DE73B
:104CA0001C000F00203CE740202B03D04024E31AD7
:104CB00099400843411E884138437CE60022002485
:104CC00025E6171A4346BA429241591A5242891AA6
:104CD0006446350043E541461000144D10E680223D
:104CE0000024120380E61D000F00203DEF40BC466B
:104CF000202B03D04025EB1A994008430700634658
:104D0000781E87411F4369E7871897429B414144BA
:104D10005B42C9183500A3E53B003343CED00722E0
:104D200031003A4052E600231A00F4E5FF07000084
:104D3000FFFF7FFFF0B55746DE464E464546E0B5DD
:104D4000834607000E03480085B092461C00360BD0
:104D5000400DCD0F002800D19DE0954B984239D0F1
:104D60008023F6001B041E43924A7B0F334399466F
:104D7000944603006344009300230026FF0002933F
:104D800023031B0B98466300E40F52465B0D01940E
:104D900000D1B3E086498B4200D19EE04246D1006B
:104DA000802212040A435146490F11438B46814920
:104DB00052468C4600996344CB1A0021D2000093DE
:104DC0002B0063409A460F2E00D905E17A4BB600BE
:104DD0009B599F465B463343994600D0B8E0022377
:104DE0000826002700900293CAE7CB463A000299B2
:104DF0000195019B9A46022927D0032900D180E220
:104E0000012944D06D49009B8C4663441C00002C52
:104E100038DD530700D013E2D2085B46DB0109D529
:104E20005946674B19408B468021C9008C46009B30
:104E300063441C00634B9C4207DC5B4664055F07D0
:104E40005B0217431B0B620D02E000230027584A48
:104E500000211B031C0B0B0D1B05234314055A4A91
:104E6000380013401C4353466400DB0764081C43AE
:104E7000210005B03CBC90469946A246AB46F0BD29
:104E80000122524201231B1B382B00DCADE1002222
:104E900000230027DCE75B46334399465ED0002EB3
:104EA00000D18AE13000FEF7F9FB03000B3B1C2B1D
:104EB00000DD7BE11D22D31A5A460100DA40083991
:104EC0008E4013005F46334399468F403F4B002688
:104ED0001B1A00930023029352E7414653460B43AB
:104EE0003B499B468C46009B634400935B46002BEA
:104EF0003BD1022300221E43022161E743461343B4
:104F00009B4637D04346002B00D162E14046FEF776
:104F1000C5FB03000B3B1C2B00DD53E102004146A7
:104F2000083A914088461D21CB1A5146D9400B00C2
:104F300041460B439B46534693401A00009B25492C
:104F40009C46604403008C4663440093002137E78D
:104F50000323B14600900C26029311E7002300932F
:104F600001330426002702930AE70323C3461E43A6
:104F7000032125E701331E430022012120E70023FE
:104F80009A46802300271B03094A61E7802349468C
:104F90001B03194200D1E2E05946194200D0DEE07D
:104FA0000B431B0317001B0BA246014A50E7C046E8
:104FB000FF07000001FCFFFF64660000FF03000024
:104FC000FFFFFFFEFE070000FFFF0F800DFCFFFF4D
:104FD00001F8FFFFF3030000D94500D9CBE000D171
:104FE000C6E03C0048460027009B013B00935B461F
:104FF000160E1B021E431302984633041B0C9946DF
:10500000310C0191FEF7E2F94A4642430B04210CB0
:10501000050019438A4207D98919013D8E4203D8F8
:105020008A4201D9851E8919881A0199FEF7CEF99D
:1050300009048C464A46210464464243090C030095
:1050400021438A4204D98919013B8E4200D8F1E0FC
:105050002D041D43AB464346891A4246280C1204D0
:105060001D0C5B46140C22001B041B0C5A430394BA
:105070006B434443029568431B19150CEB189C4283
:1050800003D980246402A44660441C0C15041B044C
:105090002D0C20185D19814277D373D00C1AA24AC7
:1050A0007D1BAF42BF419446009B7F426344E01B9F
:1050B0001C00864200D1DBE00199FEF787F94A46E1
:1050C00042430B04290C070019438A4207D9891966
:1050D000013F8E4203D88A4201D9871E8919881A56
:1050E0000199FEF773F909044A46894629044D4699
:1050F0004243090C030029438A4207D98919013B1D
:105100008E4203D88A4201D9831E89193F04891A25
:105110003A00039F1A43380013041B0C584381467E
:105120000298150C6F43434345434846000C8446A0
:10513000DB1963449F4203D98020400284466544C2
:1051400048461F0C00041B04000C7D191818A942C6
:1051500000D284E000D17FE001231A4357E6802388
:105160004A461B0313431B031B0BAA466F4A6FE6F9
:10517000BA4200D935E74B46DC0758087B081C4388
:10518000FF0734E70024AF4289D247444745A44192
:105190005B466442A4196418013BA6421ED2A04299
:1051A0006DD800D1B6E0241A9B4678E703005A4632
:1051B000283B9A400027914688E65846FEF76EFA4B
:1051C000203072E603005246283B9A409346002264
:1051D000B4E65046FEF762FA20309AE6A642E2D1E3
:1051E000B845DCD9341A9B4659E71F2B65DC504C77
:1051F0000099A4465C46614408008C40110082403E
:10520000D940501E82410C4314435A46DA401300E1
:10521000620709D00F222240042A05D02200141D63
:105220009442894149425B181A0262D50122002347
:1052300000270DE68A4200D80AE7831E891907E78E
:105240000F231340042B00D1E6E5171D974292412E
:1052500053429B44FA08E0E5002800D1D7E57118D5
:10526000531EB14227D3A94215D358D01A0073E771
:10527000002B00DC04E6012300229B44CDE5022341
:105280004744474589415B429C46494289190C196C
:10529000E344241A03E743465F0047459B41B84671
:1052A0005B429E19023A8919A94200D054E7404551
:1052B00000D051E7ABE51A00F6E71F215F464942EF
:1052C0000C1BE740202B07D01A49009B8C466344F7
:1052D00018005B4683401A43501E82413A43072719
:1052E0000023174009D00F21002311401400042986
:1052F00095D122005F075B021B0BD20817430022E7
:10530000A6E5802359461B030B431B0317001B0B09
:10531000064A9DE5BD42B2D89B460024BFE68045C3
:10532000B9D31A00C3E7C046FF030000FF0700001F
:105330001E0400003E040000F0B54F464646D64627
:105340008446C0B58046194E18030F034D00000B6C
:105350005C0082463F0B6D0DC90F9146640DDB0F5B
:105360000120B5420AD0B44203D0A54201D157452D
:105370000CD01CBC90469946A246F0BD66463E4302
:10538000F7D1AC42F5D154461443F2D10120C845BF
:10539000EFD1994207D0002DEBD163461F4338006F
:1053A000471EB841E5E70020E3E7C046FF070000DD
:1053B000F0B54F464646D6464D00C0B50E03C90F60
:1053C0008A462C491F035C008046360B6D0D9146C2
:1053D0003F0B640DDB0F8D421ED08C4216D0002D8A
:1053E0001ED130438446002C01D13A4323D062467B
:1053F000002A1AD09A4529D0514602200139084086
:1054000001381CBC90469946A246F0BD39001143B4
:10541000E5D002204042F4E73043FAD1AC420FD04D
:10542000002C0FD13A43E7D00CE00122013B93431B
:1054300018000130E5E763460020002BE1D0DBE7F0
:105440003A43E6D19A45D7D1A542D5DCA54205DB42
:10545000BE42D1D808D00020BE42D2D2504601234D
:10546000013898430130CCE7C845C5D80020C8456D
:10547000F4D3C6E7FF070000F0B54F464646D646D0
:105480004D00C0B50E03C90F8A462E491F035C00AC
:105490008046360B6D0D91463F0B640DDB0F8D4240
:1054A00018D08C4211D0002D18D130438446002CE6
:1054B0001ED13A431CD163460020002B30D0514608
:1054C00002200139084001382AE039001143EAD0AE
:1054D000022025E03043FBD1AC4226D0002C26D15F
:1054E0003A4324D15146022001390840013817E0DF
:1054F0006246002A0FD09A45E1D1A54205DBBE42A3
:10550000DDD819D00020BE420AD25046012301380E
:105510009843013004E00122013B9343180001301D
:105520001CBC90469946A246F0BD3A43D0D19A455C
:10553000C5D1A542C3DCE0E7C845C0D80020C845B6
:10554000E3D3EDE7FF070000F0B55746DE464E46D1
:105550004546E0B5834606000F03480087B09246F3
:105560001D003F0B400DCC0F002800D16FE0DE4B3B
:10557000984238D08023FF001B041F43730F3B4326
:105580000193DA4B0027994600239B46F60081449D
:105590002B0369001B0B52469846490DED0F00295D
:1055A00000D185E0D04B994200D173E04346DA0048
:1055B00080231B0413435246CC48520F84461343A6
:1055C000524600206144D200894421006940009184
:1055D0008C46012149448A460F2F00D990E0C449E6
:1055E000BF00CF59BF465B463B43019300D06AE101
:1055F00002230827002681469B46C9E73200584609
:10560000019B61460091022800D175E0032800D17A
:10561000FEE1012800D02CE1002300270026002510
:105620003F032A0D3F0BB34812053A4302401B05C6
:105630001343009A5B00D1075B080B43300019004D
:1056400007B03CBC90469946A246AB46F0BD5B46CF
:105650003B43019300D12FE1002F00D1A5E1380099
:10566000FEF71CF803000B3B1C2B00DD96E11D220E
:10567000D31A5A460100DA405E4608398F401300BB
:105680008E403B4301939C4B00271B1A99460023F5
:105690009B467DE7414653460B4393498C46E14484
:1056A000002B00D01AE102220220174300228CE7CF
:1056B000134300D10DE14346002B00D181E1404668
:1056C000FDF7ECFF02000B3A1C2A00DD72E101003D
:1056D000434608398B4098461D239A1A5346D340B7
:1056E0001A004346134352468A404946081A8249E3
:1056F00089468144002068E77B4B002700268EE71F
:10570000140C1204120C1100370C3604350C7943BA
:1057100028008C462E006043604483465643210097
:10572000300C80465846794340440291844506D95E
:105730008846802149028C46E04441460291360465
:10574000010C360C00048B4681191E0C1B041B0C2B
:105750000391190079438C46280075436544A84697
:105760005843050C45447743A94203D98021490297
:105770008C466744290C8C4639000004000C2D042B
:105780002D186144AB4405915946049101990F04C9
:105790003F0C080C390051434243904602008C46AE
:1057A000090C8B4662437C4344445C44A04503D9C6
:1057B0008021490288464244210C884661460904FA
:1057C000090C8C4639005943434370437E430F0C08
:1057D000F6182404BE19644442448C46B34203D9EB
:1057E00080235B0298464044029B61469846049B96
:1057F000370443449B46AB45AD416B420D040599CC
:105800002D0C8C467F196744FD18A8465D462D195E
:10581000A542A44193466442A446C344DC448F425B
:10582000BF4198459B4193459241A445A4415B42A9
:105830007F421F43360C52426442BF192243BF18B5
:10584000624638184302D20D039913436A020A4391
:10585000501E82416146ED0D2A434E023243D9016A
:1058600000D4B3E00126500832400243DE07324341
:105870005B08224C5444002C62DD510709D00F20F4
:105880001040042805D0101D9042924152429B18AE
:105890000200D90104D580241948E400034054448F
:1058A0001848844200DD27E75E075B02D2081F0B21
:1058B000630516435B0DB2E60023994601330427C6
:1058C00000269B4664E60323019781460C279B46EE
:1058D0005EE6012201201743002276E6032303201F
:1058E0001F43434671E6C046FF07000001FCFFFF6F
:1058F000A4660000FFFF0F800DFCFFFFFF03000008
:10590000FFFFFFFEFE0700000023802700933F03F8
:105910000026434B83E6019B3200A446584670E6BE
:10592000AC466EE6802701993F0339422DD03B42B9
:105930002BD11F433F033F0B00951600384B6EE6FB
:1059400001252D1B382D00DD66E61F2D40DC354876
:105950001C005044160082408440EE40501E82419C
:1059600034431443EB40620709D00F222240042A3B
:1059700005D02200141D9442804140421B181A0297
:105980003ED501230027002649E68027019B3F03DF
:105990001F433F033F0B0094214B40E603005A4650
:1059A000283B9A40002601926DE65846FDF776FEA8
:1059B000203057E603005246283B9A40130000224D
:1059C00093E65046FDF76AFE20307BE6CA4650E774
:1059D0001F201E004042041BE640202D03D0124C25
:1059E0005444A3401A43501E8241324307260027E5
:1059F000164009D00F200023104014000428B9D10C
:105A000022005E075B021F0BD2081643002306E646
:105A100080273F031F433F033F0B1600004BFEE56B
:105A2000FF0700001E0400003E040000F8B55746C2
:105A30004E464546DE460C000903E0B5490A460FCE
:105A40005F0031431E03DB0F760A9B46530F33433F
:105A5000C84E6500C000E40FD2006D0DA24681461D
:105A60007F0D9C469046B74200D1B9E05B460126C7
:105A700073409B46EE1BA34500D183E0002E63DDFF
:105A8000002F00D0B1E06346134300D123E1731E21
:105A9000002B00D0BAE1861A6346B042804101254E
:105AA000C91A4042091A0B0200D447E149024B0AC5
:105AB00098464346002B00D189E14046FDF7EEFDB4
:105AC0000300083B1F2B00DD7CE120223000D21AAE
:105AD0004146D040994002009E400A439D4200DD6D
