:100000000010002065010000910100009101000036
:100010009101000091010000910100009101000098
:10002000910100009101000091010000612A00008F
:100030009101000091010000612B0000A52B000040
:1000400091010000ED0D0000910100009101000000
:100050009101000091010000550E00009101000087
:100060009101000091010000B50D00009101000018
:10007000094A000091010000910100009101000077
:1000800091010000910100009101000010B5064CA3
:100090002378002B07D1054B002B02D0044800E049
:1000A00000BF0123237010BDC80200200000000023
:1000B0002078000008B5084B002B03D007480849FA
:1000C00000E000BF07480368002B00D108BD064BC5
:1000D000002BFBD09847F9E70000000020780000D3
:1000E000CC020020C002002000000000164B002BB4
:1000F00000D1144B9D46402292029A1A924600214A
:100100008B460F461348144A121A07F080F90F4B1A
:10011000002B00D098470E4B002B00D098470020B2
:10012000002104000D000D48002802D00C4800E01A
:1001300000BF07F03DF92000290004F07DFD07F025
:1001400021F9C04600000800001000200000000057
:1001500000000000C8020020780B00200000000012
:1001600000000000064880470649074A074B9B1AD3
:1001700003DD043BC858D050FBDCFFF7B7FF00009D
:10018000990200002C78000000000020C40200202A
:10019000FEE7C04680B582B000AF00F017F8031C40
:1001A0007B60084B5B680F2213401A1C7B68D340AE
:1001B0007B60054B7A681A607B68181CBD4602B0EC
:1001C00080BDC04600800C400800002080B582B091
:1001D00000AF294BDA6AF0239B01134080225201C1
:1001E00093420CD080229201934204D080221201CB
:1001F000934208D00BE0214B1B687B6036E08023E4
:100200001B027B6032E01E4B1B687B602EE01A4BAA
:10021000DA68E023DB00134080229200934218D07A
:1002200080229200934206D8002B18D080225200E0
:10023000934211D016E0C0229200934206D0802251
:10024000D20093420ED10F4B7B600EE00E4B7B60D1
:100250000BE00E4B7B6008E00D4B7B6005E00D4B27
:100260007B6002E000237B60C046C0467B68181CB0
:10027000BD4602B080BDC04600800C400400002096
:1002800000000020406F4001809FD500C0D8A7002B
:1002900040B56400804F120080B500AFBD4680BD00
:1002A00090B500AF094B00221A70094B094A1A6039
:1002B000094B0A4A1A600A4A00230A4C1360546028
:1002C000094B00221A70BD4690BDC046800A00202E
:1002D000940A002000009643980A0020000098C16C
:1002E000880A0020008061C09C0A002080B584B08C
:1002F00000AF021CFB1D1A70BB1D0A1C1A700023E4
:10030000FB60BB1D1B78022B17D0032B25D0012BC4
:1003100037D1384B5A68FE23DB0513401B0E1B02F6
:10032000FA681343FB60334B5A68FE23DB03134028
:100330001B0CFA681343FB6026E02E4B9A68FE23E1
:10034000DB011340FA681343FB602A4B9B687F2252
:100350001340FA681343FB6016E0264B9A68FE23AD
:10036000DB0513401B0E1B02FA681343FB60214B95
:100370009A68FE23DB0313401B0CFA681343FB60EF
:1003800002E01D4BFB60C0461C4B0A225A601B4B0F
:100390001A4A526B1A491140FA680A435A63174BBA
:1003A000DB68FB60FB68174A1340FB60FB1D1B7892
:1003B0001A02BB1D1B781B0413431A1CFB68134352
:1003C000FB600E4BFA68DA600C4B01221A620B4B91
:1003D00001221A62094B01225A60C046074B9B69F1
:1003E00001221340FAD0054B5B6A9BB2181CBD4634
:1003F00004B080BDB081E00F144000000020004038
:100400008080FFFFFFF0F8FF90B585B000AF786007
:100410000F23FB1800221A700E23FB187F221A707C
:100420000D23FB1840221A700E23FB181A780F2395
:10043000FB181B78D31A012B00D0B4E00F23FB1854
:100440001B78052B3AD80F23FB181A78934B920090
:10045000D3587A68D31A181C05F000FC031C181C2A
:100460008F4905F0E3F8031C1C1C0E23FB181A78B7
:100470008A4B9200D2580F23FB181978874B8900BA
:10048000CB58D31A181C05F0E9FB031C201C191CBF
:1004900004F0DAFE031CBB600F23FB181A78131C50
:1004A0009B009B18133B181C05F090FB031CB868BD
:1004B000191C04F04DFD031CBB6073E00F23FB18F7
:1004C0001B78542B31D80F23FB181A78734B9200EA
:1004D000D3587A68D31A181C05F0C0FB041C0E23ED
:1004E000FB181A786D4B9200D2580F23FB1819781D
:1004F0006A4B8900CB58D31A181C05F0AFFB031CBC
:10050000201C191C04F0A0FE031CBB600F23FB1869
:100510001B780533181C05F059FB031CB868191C1F
:1005200004F016FD031CBB603CE00F23FB181A7897
:100530005A4B9200D3587A68D31A181C05F08EFBD8
:10054000031C181C564905F071F8031C1C1C0E23D3
:10055000FB181A78514B9200D2580F23FB181978C8
:100560004E4B8900CB58D31A181C05F077FB031C9F
:10057000201C191C04F068FE031CBB600F23FB1831
:100580001B78553B1A1C131C9B009B185A33181CD4
:1005900005F01CFB031CB868191C04F0D9FC031CF3
:1005A000BB6075E074E00D23FB181A783B4B92009A
:1005B000D2587B689A4215D20F23FB180D22BA1825
:1005C00012781A700F23FB181A780E23FB181B7869
:1005D000D318002B00DA01335B101A1C0D23FB1813
:1005E0001A7054E00D23FB181A782C4B9200D25845
:1005F0007B689A4236D10F23FB180D22BA18127865
:100600001A700F23FB181B78052B0CD80F23FB182F
:100610001A78131C9B009B18133B181C05F0D6FA84
:10062000031CBB601DE00F23FB181B78542B09D85B
:100630000F23FB181B780533181C05F0C7FA031CA1
:10064000BB600EE00F23FB181B78553B1A1C131CD4
:100650009B009B185A33181C05F0B8FA031CBB60AA
:1006600016E015E00E23FB180D22BA1812781A7046
:100670000F23FB181A780E23FB181B78D318002BB6
:1006800000DA01335B101A1C0D23FB181A70CBE63D
:10069000BB68181CBD4605B090BDC0460C000020CC
:1006A0000000A04090B585B000AF06200221FFF702
:1006B0001DFE031CFB6007200221FFF717FE031C31
:1006C000BB60FA68BB689A421DD9B86805F0C6FAE3
:1006D000031C181C414904F0A9FF031C1C1CFA68E8
:1006E000BB68D31A181C05F0B9FA031C201C191C8E
:1006F00004F0AAFD031C7B607868394904F096FB7E
:10070000031E0ED11CE0374B374A1A60374B384A6C
:100710001A60384B344A1A60374B00221A70324B39
:1007200058E0304B304A1A60304B314A1A60324B35
:1007300000221A702F4B2E4A1A602E4B1B6849E07C
:1007400078682E4904F086FB031E0ED02A4B002247
:100750001A70244B244A1A60244B254A1A60254BF0
:10076000214A1A60234B1B6834E078681C4905F065
:100770008FF8031C181C224904F058FF031C181C96
:1007800004F090FB031C181CFFF73EFE021C194BE3
:100790001A60194B01221A70164B1A68134B1B680A
:1007A000101C191C04F04CFB031E03D0114B1A68DB
:1007B0000E4B1A600F4B1A680A4B1B68101C191C51
:1007C00004F02AFB031E03D00A4B1A68054B1A607B
:1007D000084B1B68181CBD4605B090BD00808944BD
:1007E000EC616744940A002000009643980A0020B8
:1007F000000098C1900A0020800A00205288044519
:100800000000C84280B582B000AF0A200321FFF784
:100810006DFD031C181C05F021FA031C7B60786831
:100820000D4904F003FF031C181C0C4904F00CFDD7
:10083000031C7B6078680A4904F0F8FE031C181C4E
:1008400004F030FB031C9AB2064B1A807B68181C1C
:10085000BD4602B080BDC0460000A04000F07F450C
:1008600000007A44720B002080B582B000AF78603F
:10087000164B1B687868191C04F0E2FA031E0FD0AF
:10088000124B1B687868191C05F002F8031C181C31
:10089000FE21890504F0D4FA031E11D0012310E0D3
:1008A0000A4B1B68181C796804F0F2FF031C181C23
:1008B000FE21890504F0C4FA031E01D0012300E0E3
:1008C0000023181CBD4602B080BDC0467C0A002033
:1008D000F0B597B000AF23233022BA18D218002306
:1008E0001370232330229446BC4463441978232395
:1008F0003022BA18D2184B1C13703423FA1847232D
:100900005354232330229446BC4463441978232350
:100910003022BA18D2184B1C13703423FA184F2304
:100920005354232330229446BC4463441978232330
:100930003022BA18D2184B1C13703423FA18332300
:100940005354232330229446BC4463441978232310
:100950003022BA18D2184B1C1370CB4BDC689B6842
:10096000230EBB610023FB613B7E3422BA18535433
:10097000232330229446BC44634419782323302235
:10098000BA18D2184B1C1370BF4BDC689B68230C41
:100990003B6100237B613B7C3422BA1853542323F0
:1009A00030229446BC4463441A78232330217918BA
:1009B000C918531C0B70B44BDC689B68230ABB60DE
:1009C0000023FB60397A3423FB1899542323302207
:1009D0009446BC4463441B78232230218C46BC449B
:1009E0006244591C11701A1CA74BDC689B682300D9
:1009F0003B6000237B6039783423FB189954232310
:100A000030229446BC4463441B78232230218C4618
:100A1000BC446244591C1170191C9B4BDC689B68D8
:100A20002202180EB862B86A1043B862230EFB6245
:100A30002823FB181A783423FB185A542323302216
:100A40009446BC4463441B78232230218C46BC442A
:100A50006244591C1170191C8B4BDC689B68220482
:100A6000180C3862386A10433862230C7B622023EA
:100A7000FB181A783423FB185A5423233022944647
:100A8000BC4463441B78232230218C46BC4462441E
:100A9000591C1170191C7C4BDC689B6822061D0ACE
:100AA0001543260AEAB23423FB185A542323302272
:100AB0009446BC4463441B78232230218C46BC44BA
:100AC0006244591C11701A1C6F4BDC689B68D9B2C8
:100AD0003423FB1899546D4B1B68181C6C4904F0A7
:100AE000A5FD031C2422302179188C18181C04F051
:100AF000D9F9031C2380232330229446BC44634449
:100B00001B78232230218C46BC446244591C11704E
:100B10001A1C242330218C46BC4463441B881B0AC6
:100B20009BB2D9B23423FB18995423233022944624
:100B3000BC4463441B78232230218C46BC4462446D
:100B4000591C11701A1C242330218C46BC44634468
:100B50001B88D9B23423FB1899542423302294469D
:100B6000BC4463444B4A12881A80232330229446A3
:100B7000BC4463441B78232230218C46BC4462442D
:100B8000591C11701A1C242330218C46BC44634428
:100B90001B881B0A9BB2D9B23423FB189954232318
:100BA00030229446BC4463441B78232230218C4677
:100BB000BC446244591C11701A1C242330218C46F9
:100BC000BC4463441B88D9B23423FB1899542323B3
:100BD00030229446BC4463441B78232230218C4647
:100BE000BC446244591C11701A1C2B4B19783423D5
:100BF000FB189954294B1B8801339AB2274B1A8052
:100C0000264B1B88002B05D1244B1B8801339AB23D
:100C1000224B1A80232330229446BC4463441B7821
:100C2000232230218C46BC446244591C11701A1C8A
:100C30001A4B1B881B0A9BB2D9B23423FB18995458
:100C4000232330229446BC4463441B782322302162
:100C50008C46BC446244591C11701A1C0F4B1B88F3
:100C6000D9B23423FB189954242330229446BC442F
:100C7000634400221A80272330229446BC446344F4
:100C800000221A7030E0C04638020020900A00208E
:100C900000002041720B00209C0A0020780A0020EE
:100CA000272330229446BC4463441B783422BA186C
:100CB000D35C99B2242330229446BC44634424225A
:100CC00030208446BC44624412888A181A80272344
:100CD00030229446BC4463441A78272330218C4642
:100CE000BC44634401321A7027233022BA18D21848
:100CF000232330218C46BC44634412781B789A42EB
:100D0000CED3232330229446BC4463441B78232251
:100D100030218C46BC446244591C11701A1C242397
:100D200030218C46BC4463441B881B0A9BB2D9B259
:100D30003423FB189954232330229446BC44634443
:100D40001B78232230218C46BC446244591C11700C
:100D50001A1C242330218C46BC4463441B88D9B21E
:100D60003423FB1899540F4B802292019A63342349
:100D7000F918232330229446BC4463441A780A4B62
:100D8000081C111C1A1C002301F0B8F9054B802225
:100D900092015A63054B1A68054B1A60BD4617B09D
:100DA000F0BDC046006000403C740000900A002086
:100DB0007C0A002080B582B000AF0A4BDB6A7B6002
:100DC0007B68042213400AD0064BDB693B60054B6D
:100DD000054A5A633B68DBB2181C00F08DFEBD4625
:100DE00002B080BD00400840FF07000080B582B01F
:100DF00000AF164A8A235B00D358012213407B6060
:100E000012498E235B007A68CA507B680122134026
:100E100019D0012000F056FF0C4BDB690122134072
:100E200011D10A4B802292019A63094B1B78FF2B48
:100E300005D0074B1B780133DAB2054B1A70052039
:100E4000262103F07FFBBD4602B080BD006000405C
:100E50009D0A002080B582B000AF194A8A235B004A
:100E6000D25880231B0113407B6015498E235B0001
:100E70007A68CA507A6880231B0113401DD0FB1C7E
:100E80001220191C012200F0FFFFFB1C1B781A1C0A
:100E90000823134011D0FB1C08221A70FB1C1220DF
:100EA000191C012200F08AFF064B01221A70064B22
:100EB0001B8801339AB2044B1A80BD4602B080BD34
:100EC00000600040340B0020360B002080B584B059
:100ED00000AF021C3960FB1D1A700F23FB180022A3
:100EE0001A7014E0C0460F4B9B6810221340FAD0D2
:100EF0000C4B0F22BA18127839688A1812789A6245
:100F00000F23FB181A780F23FB1801321A700F23D6
:100F1000FA18FB1D12781B789A42E3D3BD4604B041
:100F200080BDC0460040084080B584B000AF786006
:100F30000A1CBB1C1A800F23FB18FF221A700E23F9
:100F4000FB18FF221A701FE07B685A1C7A601A781F
:100F50000F23FB181B785340DAB20C23FB181A80BE
:100F60000C23FB181B88144AD15C0F23FB180E229C
:100F7000BA1812784A401A700C23FB181A880E23EC
:100F8000FB180E498A5C1A70BB1C1B88BA1C591EC0
:100F90001180002BD8D10F23FB181B781B029AB2AB
:100FA0000E23FB181B789BB213439BB29BB2181CF9
:100FB000BD4604B080BDC0464074000040750000CE
:100FC00090B585B000AF78600A1CFB1C1A70FB1C42
:100FD0001B789BB2023B9BB20E22BC187A68101C95
:100FE000191CFFF7A1FF031C2380FB1C1B78023B8D
:100FF0007A68D3181A780C23FB181A800C23FB1874
:101000000C22BA18128812021A80FB1C1B78013BB2
:101010007A68D3181B7899B20C23FB180C22BA18E3
:1010200012880A431A800E23FA180C23FB18128820
:101030001B889A4201D1002300E0034B1BB2181C0D
:10104000BD4605B090BDC046F0FF0000F0B587B0CA
:1010500000AF3A611623FB18021C1A801523FB18F7
:101060000A1C1A701523FB181B78042B14D11623A5
:10107000FB181B88002B0DD12F4B1B68181C2F4908
:1010800004F0D4FA031C181C03F00CFF031C9BB2E1
:101090009BB24CE02A4B4AE01523FB181B78032B2C
:1010A00044D11623FB181B88052B3DD89A00254BED
:1010B000D3181B689F46244B1B789AB23B691A8051
:1010C000012334E0214B1A8A3B691A8001232EE068
:1010D0001E4BDC689B689AB23B691A80012326E0AC
:1010E0001A4BDC689B6822041D0C1543260CAAB21F
:1010F0003B691A8001231AE0144BDC689B682300CB
:10110000BB600023FB603A893B691A8001230EE033
:101110000E4BDC689B68230C3B6000237B603A88A5
:101120003B691A80012302E0012300E0044B1BB25B
:10113000181CBD4607B0F0BD900A002000002041F9
:10114000FEFF000040760000C00A002038020020A8
:10115000F0B591B000AF031C3622BA1813803423C7
:10116000FA180B1C13803623FB181B88002B02D0A7
:10117000052B12D01AE03423FB181B887C4A9342BB
:101180000AD17C4B01221A70A023DB000720191C16
:1011900003F0D8F90123E5E0D9E0774B3422BA18FF
:1011A00012881A82754B01221A70D0E03623FB1880
:1011B0001B88042B00D9C8E03623FB181B88002BA2
:1011C00000D1C2E06B4B1B78002B01D16C4BC9E006
:1011D0003623FB181B88013B012B30D002DC002B8F
:1011E00006D0B0E0022B56D0032B00D17FE0AAE05E
:1011F000614BDC689B68BB63FC63BB6B1B0C1B0413
:10120000BB63FB6B00229343FB633423FB181B88F7
:101210009BB2BB620023FB62BB6BB86AF96A021C1B
:101220001343BB63FB6B0A1C1343FB63524ABB6B48
:10123000FC6B9360D460514B01221A7083E04E4BDB
:10124000DC689B68BB63FC63BB6B1B041B0CBB6350
:10125000FB6B00221340FB633423FB181B889BB2FB
:101260003B6200237B62386A796A031C1B0C0A1CF0
:1012700016041E43031C1D04BB6B2B43BB63FB6B9B
:101280003343FB633C4ABB6BFC6B9360D4603B4BCA
:1012900001221A7057E0384BDC689B68BB63FC6323
:1012A000BB6B00229343BB63FB6B1B0C1B04FB63F8
:1012B0003423FB181B889BB2BB610023FB61BB6915
:1012C0001B007B6100233B61BB6B38697969021CA1
:1012D0001343BB63FB6B0A1C1343FB63264ABB6BC4
:1012E000FC6B9360D460254B01221A702BE0224BDB
:1012F000DC689B68BB63FC63BB6B00229343BB63EE
:10130000FB6B1B041B0CFB633423FB181B889BB279
:10131000BB600023FB60BB681B047B6000233B6059
:10132000BB6B38687968021C1343BB63FB6B0A1CF8
:101330001343FB63104ABB6BFC6B9360D4600F4B91
:1013400001221A70C046C04601E00D4B0AE00B4B6B
:101350001B78012B05D10820802103F0F3F801232D
:1013600000E0074B1BB2181CBD4611B0F0BDC046D3
:1013700032540000C00A002038020020BF0A0020BA
:10138000FEFF000080B582B000AF786039607B68F6
:101390001B88DAB23B681A703B6801337A6852885E
:1013A000D2B21A7002231BB2181CBD4602B080BD17
:1013B00090B587B000AFF860B9603B60BB1D1A8084
:1013C000BB685B889BB280339BB29AB2BB685A8081
:1013D0001623FC18BA683B68101C191CFFF7D2FFD3
:1013E000031C23801623FB181A8893B2013399B289
:1013F0001623FB18198013B23A68D318BA1D128845
:10140000D2B25242D2B21A701623FB181B881BB2FA
:10141000181CBD4607B090BD90B585B000AF021C4A
:101420003960FB1D1A70FB1D1B789BB20E22BC1885
:101430003A68101C191CFFF777FD031C2380FB1D65
:101440001B78FA1D591C11701A1C3B689B180E2240
:10145000BA181288120A92B2D2B21A70FB1D1B7807
:10146000FA1D591C11701A1C3B689B180E22BA18E1
:101470001288D2B21A70FB1D1A783B68101C191C16
:10148000FFF724FDBD4605B090BDC04690B58BB0BA
:1014900000AF78600A1CBB1C1A80D44BFB611A2376
:1014A000FB18FA6952881A801A23FB1800229B5EE7
:1014B0007A68D3181A781823FB181A801A23FB1895
:1014C00000229B5E01337A68D3181A781623FB1822
:1014D0001A801A23FB1800229B5E02337A68D31805
:1014E0001B789BB21B0299B21A23FB1800229B5E49
:1014F00003337A68D3181B789AB21423FB188A181E
:101500001A802623FB1800221A800823FB181822B1
:10151000BA1812881A800823FB181622BA181288E3
:101520005A800823FB1800229A80BB1C1B88023BB0
:101530009AB2BB1C1A801623FB1800229B5E042B58
:101540000BD003DC032B00D1B5E071E2062B00D1F8
:1015500071E1102B00D1BFE16AE21A23FB180022CF
:101560009B5E04337A68D3181B789BB21B0299B236
:101570001A23FB1800229B5E05337A68D3181B7868
:101580009AB21223FB188A181A800823FA18984B6B
:10159000101C191CFFF7F6FE031C1A1C2623FB184F
:1015A0001A802623FB181B882622BA18591C118082
:1015B0001A1C1223FB181B88DBB2DB18D9B28C4B28
:1015C00099542423FB181422BA1812881A805BE05D
:1015D0002423FB181A881023FC180E23FB18101C58
:1015E00004211A1CFFF732FD031C23801023FB1873
:1015F00000229B5E02331AD12423FB1800229A5E3C
:101600001423FB181B889A420DD1F8690823F91896
:1016100002235A42764BFFF7CBFE031C1A1C2623EB
:10162000FB181A8004E21023FB1800221A802623DC
:10163000FB181B882622BA18591C11801A1C0E236D
:10164000FB181B881B0A9BB2D9B2694B99542623FD
:10165000FB181B882622BA18591C11801A1C0E234D
:10166000FB181B88D9B2624B99542623FB181B88A0
:101670005F2B00D9DCE12423FB181B889BB20133CC
:101680009AB22423FB181A802423FB1800229A5EA6
:101690001423FB1819881223FB181B88CB189A42B5
:1016A00096DB2623FB181B88DAB2514B101C191C41
:1016B000FFF7B2FEBCE11A23FB1800229B5E043345
:1016C0007A68D3181B789BB21B0299B21A23FB18B5
:1016D00000229B5E05337A68D3181B789AB21223D6
:1016E000FB188A181A800823FA18414B101C191C81
:1016F000FFF748FE031C1A1C2623FB181A8026231A
:10170000FB181B882622BA18591C11801A1C122398
:10171000FB181B88DBB2DB18D9B2354B9954242354
:10172000FB181422BA1812881A806CE02423FB18C4
:101730001A881023FC180E23FB18101C03211A1CF6
:10174000FFF784FC031C23801023FB1800229B5E00
:1017500002331AD12423FB1800229A5E1423FB18AB
:101760001B889A420DD1F8690823F91802235A42BE
:101770001F4BFFF71DFE031C1A1C2623FB181A80A3
:1017800056E11023FB1800221A802623FB181B8821
:101790002622BA18591C11801A1C0E23FB181B880C
:1017A0001B0A9BB2D9B2124B99542623FB181B88F3
:1017B0002622BA18591C11801A1C0E23FB181B88EC
:1017C000D9B20B4B99542623FB181B885F2B11D9D8
:1017D000F8690823F91802235A42054BFFF7E8FD80
:1017E000031C1A1C2623FB181A8021E1A00A0020E2
:1017F000E40200202423FB181B889BB201339AB219
:101800002423FB181A802423FB1800229A5E142339
:10181000FB1819881223FB181B88CB189A4200DA90
:1018200084E72623FB181B88DAB2834B101C191C93
:10183000FFF7F2FDFCE01A23FB1800229B5E043345
:101840007A68D3181B789BB21B0299B21A23FB1833
:1018500000229B5E05337A68D3181B789AB2122354
:10186000FB188A181A801423FB181A881223FB18F5
:101870001B88101C191CFFF76BFC031C02330DD1D5
:10188000F8690823F91802235A426B4BFFF790FDC1
:10189000031C1A1C2623FB181A8004E02623FB18BD
:1018A000BA1C12881A80BB1C00229B5E62497A68AF
:1018B000081C111C1A1C05F0A1FD2623FB18BA1CDC
:1018C00012881A802623FB181B88DAB25A4B101C88
:1018D000191CFFF7A1FDABE01A23FB1800229B5E49
:1018E00004337A68D3181B789BB21B0299B21A236F
:1018F000FB1800229B5E05337A68D3181B789AB2D6
:101900001223FB188A181A802423FB181422BA18F1
:1019100012881A802223FB1800221A804FE0242309
:10192000FB1818881A23FB1800229B5EDA1D22235D
:10193000FB1800215B5ED3181A1C7B689B181B7870
:101940009BB21B029AB21A23FB1800215B5E08337C
:10195000191C2223FB1800241B5FCB18191C7B6861
:101960005B181B789BB2D3189BB2191CFFF7F0FBD6
:10197000031C02330DD1F8690823F91802235A42D7
:101980002D4BFFF715FD031C1A1C2623FB181A808C
:1019900022E02623FB18BA1C12881A802423FB1885
:1019A0001B889BB201339AB22423FB181A8022238E
:1019B000FB181B8802339AB22223FB181A802423B7
:1019C000FB1800229A5E1423FB1819881223FB18B7
:1019D0001B88CB189A42A2DB0823FA18164B101C5E
:1019E000191CFFF7CFFC031C1A1C2623FB181A80B6
:1019F0002623FB181A88104BD1182623FB181B88A6
:101A00007A68D318081C191C042205F0F7FC262359
:101A1000FB182622BA18128804321A802623FB18D3
:101A20001B88DAB2044B101C191CFFF7F5FCC046EA
:101A3000BD460BB090BDC046E402002080B584B026
:101A400000AF78600E23FB187A6852781A700E2364
:101A5000FB181B780F2B04D00E23FB181B78102BC0
:101A600006D17B6806331A780F23FB181A7003E03F
:101A70000F23FB1800221A700F23FB181B78023368
:101A8000DAB20F23FB181A700F23FB181B785BB216
:101A9000181CBD4604B080BD80B584B000AF021CE8
:101AA000FB1D1A70FB1D1B78052B03D8FB1D1B7833
:101AB000002B03D1FB1D1B78062B04D10F23FB1831
:101AC00004221A7010E0FB1D1B780F2B03D0FB1DA6
:101AD0001B78102B04D10F23FB1805221A7003E08A
:101AE0000F23FB1800221A700F23FB181B785BB220
:101AF000181CBD4604B080BD80B582B000AF021C8A
:101B0000FB1D1A7006200C2102F01CFD554B1B78A2
:101B1000012B29D002DC002B06D0A0E0022B00D143
:101B20007DE0032B4ED09AE04F4B1B78FA1D1278C4
:101B30009A4203D0FB1D1B78002B14D1494B9B7894
:101B4000191C484BFA1D5B181278DA70454B9B78CC
:101B50000133DAB2434B9A70424B01221A70414B67
:101B600001225A707BE07AE03E4B9B78191C3D4B7A
:101B7000FA1D5B181278DA703A4B9B780133DAB2AF
:101B8000384B9A70374B5B78013BDAB2354B5A7061
:101B9000344B5B78002B14D1324B1B79181CFFF7A8
:101BA0007BFF031CDAB22F4B5A702E4B5B78002B55
:101BB00003D02C4B03221A7003E02A4B04221A7024
:101BC0004DE04CE0274B9B78191C264BFA1D5B1807
:101BD0001278DA70234B9B780133DAB2214B9A707A
:101BE000204B5B78013BDAB21E4B5A701D4B5B7881
:101BF000002B13D11D4B181CFFF720FF031CDAB27A
:101C0000184B5A70174B5B78002B03D0154B0222F0
:101C10001A7003E0134B04221A7020E01FE0114BEE
:101C20009B78191C0F4BFA1D5B181278DA700D4B5C
:101C30009B780133DAB20B4B9A700A4B5B78013B0D
:101C4000DAB2084B5A70074B5B78002B06D106209E
:101C500002F08EFC034B04221A70FFE7C046BD461B
:101C600002B080BDA80A0020A00A0020AB0A002014
:101C700080B500AF114B1B78042B1DD1A023DB00D6
:101C80000120191C02F05EFC0C4B9B780C4A101CC6
:101C9000191CFFF795F9031E08D1084B9B789BB2DE
:101CA000074A1BB2101C191CFFF7F0FB034B002264
:101CB0001A70024B00229A70BD4680BDA80A00200F
:101CC000AB0A002080B584B000AF78600023FB60D1
:101CD0000023BB600CE0FB680133FB600023BB60AA
:101CE00002E0BB680133BB60BB68054A9342F8D988
:101CF000FA687B689A42EED3BD4604B080BDC04608
:101D0000D702000080B500AF0C4B0C4A526D0B217E
:101D10000A435A650A4B802252005A63084B8022BC
:101D20001202DA65064B80229A63054B0122DA65BE
:101D3000034B0222DA65BD4680BDC04600C40040A8
:101D40000060004080B584B000AF021CFB1D1A701B
:101D50000E23FB1800221A700F23FB1800221A70A2
:101D60001FE0FB1D1A780F23FB181B789A40131CE9
:101D7000802213400ED00F23FB181B7801229A40BB
:101D8000131CDAB20E23FB181B781343DAB20E23AE
:101D9000FB181A700F23FB181A780F23FB18013257
:101DA0001A700F23FB181B78072BDAD90E23FB18A8
:101DB0001B78181CBD4604B080BDC04690B585B0E8
:101DC00000AF3960111CFB1D021C1A70BB1D0A1CE0
:101DD0001A702B4B802252009A63C046294B1B6914
:101DE00040221340FAD0274CFB1D1B788022524220
:101DF0001343DBB2181CFFF7A5FF031C6363C04647
:101E0000204B1B6920221340FAD00F23FB1800221D
:101E10001A7026E0C0461B4B1B6940221340FAD0C3
:101E2000184C0F23FB181B783A68D3181B78181C22
:101E3000FFF788FF031C6363C046124B1B69202217
:101E40001340FAD00F4BDB69DBB2181CFFF77AFFA7
:101E5000031CBB600F23FB181A780F23FB180132F9
:101E60001A700F23FA18BB1D12781B789A42D1D32F
:101E7000034B802252005A63BD4605B090BDC04658
:101E80000060004000C4004090B585B000AF3960EC
:101E9000111CFB1D021C1A70BB1D0A1C1A702B4B57
:101EA000802252009A63C046294B1B69402213408E
:101EB000FAD0274CFB1D1B787F221340DBB2181C85
:101EC000FFF740FF031C6363C046214B1B692022C0
:101ED0001340FAD00F23FB1800221A7028E0C046E6
:101EE0001B4B1B6940221340FAD0194BFF225A6347
:101EF000C046174B1B6920221340FAD0144B9B6934
:101F0000BB60134B9B69BB600F23FB181B783A68BF
:101F1000D4180F4B9B69DBB2181CFFF713FF031C8F
:101F200023700F23FB181A780F23FB1801321A7045
:101F30000F23FA18BB1D12781B789A42CFD3034B9C
:101F4000802252005A63BD4605B090BD006000403B
:101F500000C4004080B582B000AF021CFB1D1A70A7
:101F6000BB1D0A1C1A70FB1D1A78BB1D101C191C06
:101F70000122FFF723FFBD4602B080BD80B582B0CD
:101F800000AF78600A1CFB1C1A707A68FB1C1B7877
:101F90000020111C1A1CFFF711FFBD4602B080BDC6
:101FA00080B500AF264B00221A70264B1B684233C7
:101FB0004220191C0122FFF767FF234B0120191C47
:101FC0006F22FFF761FF1F4B1B6820221A731E4B05
:101FD0000120191C6F22FFF7F1FE1C4B1B68181C17
:101FE00000F0A8F9194B9B79181C00F013FA174B55
:101FF000DB79181C00F05CFA144B1B7A181C00F0FB
:102000008BFA124B5B79181C00F0D0F90F4B5B7AFE
:10201000181C00F0B9FA0E4B181C00F00BFB0B4B10
:102020001B7E181C00F0E6FA012000F03DFB074B78
:102030001B79DBB2181C00F00FF9BD4680BDC0460D
:102040004403002028020020C50A00200C020020C2
:10205000FF03000080B584B000AF021CFB1D1A70A6
:102060000F23FB1800221A70214B1B685B78072294
:102070001340DAB21F4B1A701E4B1B78FA1D1278F0
:102080009A4231D0FB1D1B78032B04D10F23FB1880
:1020900001221A7003E00F23FB1800221A70164B5E
:1020A0001B780F22BA1812789A4204D0124B0F22D2
:1020B000BA1812781A700E4B1A680D4B1B685B78B1
:1020C000DBB2191C072399430B1CD9B2FB1D1B78EB
:1020D0000B43DBB2DBB25370054B1B6801330120AD
:1020E000191C0122FFF76AFEBD4604B080BDC04640
:1020F000280200202C0200202D02002080B586B08E
:1021000000AFF860081C7A60191C0B23FB18021C36
:102110001A700A23FB180A1C1A704C4B00221A7002
:10212000FB68002B04D00B23FB181B78002B01D17C
:10213000012386E00120FFF78DFF454B1B68F72246
:102140005A74434B1B68242200219954404B1B684E
:1021500024229B5C2420191CFFF7FCFE3C4B1B68CF
:102160005B7C1120191CFFF7F5FE394B1B680B2215
:10217000BA18222112785A54354B1B6822229B5CD4
:102180000433DBB22220191CFFF7E4FE304B1B683E
:1021900000229A732E4B1B689B7B0E20191CFFF7A5
:1021A000D9FE2B4B1A682A4B1B689B7B5373284B19
:1021B0001B685B7B0D20191CFFF7CCFE244B1B68B2
:1021C00022229B5CFA68101C191CFFF7D7FE0A2319
:1021D000FB181B78012B0CD10B23FB181B787B2BD6
:1021E00005D87B68181C0421FFF7C8FE01E0012315
:1021F00027E0174B1B6840227F219954144B1B6822
:10220000412230219954124B1B6840334020191C45
:102210000222FFF7D3FD0320FFF71CFF0D4B7B616C
:1022200002E07B69013B7B61084B1B78002B02D1EC
:102230007B69002BF5D17B69002B01D1022300E0E3
:102240000023181CBD4606B080BDC046340B0020DC
:1022500028020020A086010080B582B000AF021CD9
:10226000FB1D1A700B203F21FFF774FE2F4B1B68DC
:1022700009330920191C0122FFF706FE2B4B1A68AF
:102280002A4B1B685B7A802149420B43DBB25372B5
:10229000264B1B6809330920191C0122FFF78EFD0C
:1022A000224B1B684D334D20191C0122FFF7ECFD1A
:1022B0001E4B1B684D22872199541C4B1B684D22D5
:1022C0009B5C4D20191CFFF745FE184B1A68174BF5
:1022D0001B685B7A70210B43DBB25372134B1A6895
:1022E000124B1B685B7ADBB2191C0F2399430B1C42
:1022F000D9B2FB1D1B78053BDBB2DBB2181C0F23E8
:102300000340DBB20B43DBB2DBB25372074B1B68FB
:1023100009330920191C0122FFF750FDFB1D1A7813
:10232000034B1A71BD4602B080BDC0462802002092
:102330000C02002090B583B000AF7860184B7A682B
:102340001A60786804F040FE031C0C1C181C211C49
:102350000022144B03F0CAFC031C0C1C181C211C8B
:1023600002F0B8FD031C7B600F4B1B687A68120CEF
:10237000D2B29A710C4B1B687A68120AD2B2DA7127
:10238000094B1B687A68D2B21A72074B1B68063376
:102390000620191C0322FFF711FDBD4603B090BDB6
:1023A0000C02002080844E402802002080B582B0BC
:1023B00000AF021CFB1D1A70144B1B681D331D203F
:1023C000191C0122FFF760FD104B1A680F4B1B68A8
:1023D0005B7FDBB2191C0F230B40D9B2FB1D1B78AE
:1023E0001B01DBB20B43DBB2DBB25377074B1B683D
:1023F0001D331D20191C0122FFF7E0FC044BFA1DC0
:1024000012785A71BD4602B080BDC0462802002035
:102410000C02002080B582B000AF021CFB1D1A70B8
:10242000FB1D1B780C2B03D9FB1D0C221A7006E038
:10243000FB1D1B78052B02D8FB1D06221A70FB1D05
:102440001B78062B03D1052000F05EF902E0032083
:1024500000F05AF9144B1B681E331E20191C012270
:10246000FFF712FD104B1A680F4B1B689B7FDBB206
:10247000191C0F230B40D9B2FB1D1B781B01DBB2CB
:102480000B43DBB2DBB29377074B1B681E331E2076
:10249000191C0122FFF792FC044BFA1D12789A7165
:1024A000BD4602B080BDC046280200200C020020BC
:1024B00080B582B000AF021CFB1D1A70144B1B6864
:1024C0001D331D20191C0122FFF7DEFC104B1A687A
:1024D0000F4B1B685B7FDBB2191C0E2399430B1C4F
:1024E000D9B2FB1D1B785B00DBB20B43DBB2DBB266
:1024F0005377074B1B681D331D20191C0122FFF762
:102500005DFC044BFA1D1278DA71BD4602B080BD45
:10251000280200200C02002080B582B000AF021C0F
:10252000FB1D1A70164B1B681E331E20191C01223E
:10253000FFF7AAFC124B1A68114B1B689B7FDBB29A
:10254000191C042399430B1CD9B2FB1D1B789B005B
:10255000DBB20B43DBB2DBB29377094B1B681E3354
:102560001E20191C0122FFF729FCFB1D1B785A1E97
:102570009341DAB2034B1A72BD4602B080BDC04629
:10258000280200200C02002080B582B000AF021C9F
:10259000FB1D1A70154B1B681D331D20191C0122D1
:1025A000FFF772FC114B1A68104B1B685B7FDBB2A4
:1025B000191C012399430B1CD9B2FB1D1B780B433B
:1025C000DBB2DBB25377094B1B681D331D20191C8E
:1025D0000122FFF7F3FBFB1D1B785A1E9341DAB271
:1025E000034B5A72BD4602B080BDC046280200208F
:1025F0000C02002080B582B000AF021CFB1D1A70D7
:102600000A4B1B68FA1D222112785A54074B1B688B
:1026100022332220191C0122FFF7D0FB044BFA1DA4
:1026200012781A76BD4602B080BDC046280200204E
:102630000C02002080B582B000AF021CBB1D1A80C6
:10264000184B1B681E331E20191C0222FFF71CFCAE
:10265000144B1A68134B1B689B7FDBB2191C0323B6
:1026600099430B1CD9B2BB1D1B881B0A9BB2DBB262
:10267000181C03230340DBB20B43DBB2DBB29377BE
:10268000084B1B68BA1D1288D2B2DA77054B1B685B
:102690001E331E20191C0222FFF790FBBD4602B01C
:1026A00080BDC0462802002080B582B000AF021C69
:1026B000FB1D1A70134B1B6826332620191C0122A0
:1026C000FFF7E2FB0F4B1A680E4B1B6826215B5C81
:1026D000DBB2191C082399430B1CD9B2FB1D1B78D4
:1026E000DB00DBB20B43DBB2D9B22623D154054B5E
:1026F0001B6826332620191C0122FFF75FFBBD460D
:1027000002B080BD2802002080B582B000AF021C5C
:10271000FB1D1A70124B1B6831333120191C01222A
:10272000FFF7B2FB0E4B1A680D4B1B6831215B5C47
:10273000DBB2191C072399430B1CD9B2FB1D1B7874
:102740000B43DBB2D9B23123D154054B1B68313373
:102750003120191C0122FFF731FBBD4602B080BDBC
:102760002802002080B500AF0D4B80221202DA65EE
:102770000C4B0C4A526D0B218A435A65084B0222BE
:10278000DA65074B0122DA65054B80229A63044B18
:10279000802252009A63044B00221A70BD4680BD0D
:1027A0000060004000C400403A0B002080B500AF3C
:1027B000FFF7A8FA00F01AF80A4B0120191C6F2243
:1027C000FFF762FB00F026F8FFF7EAFB054B01205C
:1027D000191C6F22FFF758FB034B01221A70BD46EC
:1027E00080BDC046C50A00203A0B002080B500AF6E
:1027F000074B80221202DA650320FFF763FA044BCD
:10280000802212029A650620FFF75CFABD4680BD61
:102810000060004080B500AF0020FFF71BFC174BA5
:102820001A68164B1B685B78802149420B43DBB268
:102830005370124B1B685B780120191CFFF78AFB51
:102840000120FFF707FC0D4B1B6840220021995423
:102850000A4B1B68412200219954084B1B684033E6
:102860004020191C0222FFF7A9FA054B0120191C70
:102870006F22FFF709FBBD4680BDC046280200203D
:10288000C50A002080B584B000AF78600023FB60EB
:102890007B680722134004D07B68072293430833E8
:1028A0007B6000F0A5FB164B1B68002B05D1154B78
:1028B000072293431A1C124B1A60134B1A687B6849
:1028C000D318124A934213D80F4B1A687B68D21858
:1028D0000D4B1B689A420BD9094B1A680A4B1B68AF
:1028E000D318FB60084B1A687B68D218064B1A6035
:1028F00000F08AFBFB68181CBD4604B080BDC046D2
:102900008C090020500300208809002037060000B1
:1029100080B582B000AF7860BD4602B080BDC046D1
:1029200080B582B000AF78607B6808331A1C7B6882
:102930005A607B68012252429A607B6808331A1CF5
:102940007B68DA607B6808331A1C7B681A617B68D5
:1029500000221A60BD4602B080BDC04680B582B07C
:1029600000AF78607B6800221A61BD4602B080BD6E
:1029700080B584B000AF786039607B685B68FB60CD
:102980003B68FA685A60FB689A683B689A60FB6823
:102990009B683A685A60FB683A689A603B687A6854
:1029A0001A617B681B685A1C7B681A60BD4604B0BC
:1029B00080BDC04680B584B000AF78607B681B697D
:1029C000FB607B685B687A6892689A607B689B684A
:1029D0007A6852685A60FB685A687B689A4203D1E9
:1029E0007B689A68FB685A607B6800221A61FB6802
:1029F0001B685A1EFB681A60FB681B68181CBD46E2
:102A000004B080BD80B584B000AFF860B9607A6072
:102A1000FB68043BFB60FB68802252041A60FB6881
:102A2000043BFB60BA68FB681A60FB68043BFB6010
:102A3000084AFB681A60FB68143BFB607A68FB6815
:102A40001A60FB68203BFB60FB68181CBD4604B0A5
:102A500080BDC046592A000080B500AF72B6FEE7BF
:102A600080B500AFBD4680BD000000000000000042
:102A70000B4A13681868203080F30988022080F31D
:102A80001488BFF36F8F3FBCAE4608BC04BC62B66F
:102A90001847C046C046C046C046C046C046C046AD
:102AA0009009002080B500AF0D4B0D4A1268FF2140
:102AB00009040A431A600A4B094A1268FF210906F1
:102AC0000A431A6001F0CEFF064B00221A60FFF79E
:102AD000CFFFFFF7C1FF0023181CBD4680BDC046D5
:102AE00020ED00E03002002080B500AF044B8022D2
:102AF00052051A60BFF34F8FBFF36F8FBD4680BD85
:102B000004ED00E080B500AF72B6054B1B685A1C9F
:102B1000034B1A60BFF34F8FBFF36F8FBD4680BD6D
:102B20003002002080B500AF054B1B685A1E044BD5
:102B30001A60034B1B68002B00D162B6BD4680BDF6
:102B400030020020EFF3108072B670470023181C8B
:102B500080F310887047C0460000000000000000AD
:102B6000EFF309800E4B1A6820381060F0C044461D
:102B70004D4656465F46F0C008B572B600F078FB89
:102B800062B60CBC116808681030F0C8A046A946AF
:102B9000B246BB4680F309882038F0C81847C046C3
:102BA0009009002080B582B000AFFFF7CBFF031C77
:102BB0007B6000F0AFFA031E03D0054B8022520564
:102BC0001A607B68181CFFF7C3FFBD4602B080BDCA
:102BD00004ED00E090B58DB004AFF860B9603B60E3
:102BE000BB1D1A80BB1D1B889B00181CFFF74AFEEB
:102BF000031C7B617B69002B10D04820FFF742FE4D
:102C0000031CFB61FB69002B03D0FB697A691A6323
:102C100006E07B69181CFFF77BFE01E00023FB61E7
:102C2000FB69002B16D0BB1D1A88F868B9683C6890
:102C30003B6B00937B6B0193FB690293002303932F
:102C4000231C00F00FF8FB69181C00F079F8012331
:102C5000BB6102E001235B42BB61BB69181CBD463E
:102C600009B090BD80B586B000AFF860B9607A60F9
:102C70003B60BB6A1A6B7B6830498C4663449B009F
:102C8000D3183B613B69072293433B6100237B617F
:102C900014E0BA687B69D3181878BA6A30217B6966
:102CA000D3185B18021C1A71BA687B69D3181B7899
:102CB000002B00D105E07B6901337B617B69092B27
:102CC000E7D9BB6A3D22002199543B6A022B01D906
:102CD00002233B62BB6A3A6ADA62BB6A0433181C9D
:102CE000FFF73CFEBB6A1833181CFFF737FEBB6AC0
:102CF000BA6A1A613B6A0322D21ABB6A9A61BB6A3A
:102D0000BA6A5A62BB6A00221A64BB6A4422002172
:102D100099543969FA683B68081C111C1A1CFFF7A2
:102D200071FE021CBB6A1A607B6A002B02D07B6AB0
:102D3000BA6A1A60BD4606B080BDC046FFFFFF3FBD
:102D400080B582B000AF7860FFF7DCFE274B1B68D0
:102D50005A1C264B1A60264B1B68002B09D1244BAA
:102D60007A681A60214B1B68012B10D100F0F0FA31
:102D70000DE0204B1B68002B09D11D4B1B68DA6A44
:102D80007B68DB6A9A4202D8194B7A681A601A4B40
:102D90001B685A1C184B1A607B68DA6A174B1B6851
:102DA0009A4203D97B68DA6A144B1A607B68DA6A44
:102DB000131C9B009B189B00114A9A187B680433D4
:102DC000101C191CFFF7D4FDFFF7ACFE094B1B6864
:102DD000002B08D0064B1B68DA6A7B68DB6A9A42D4
:102DE00001D2FFF781FEBD4602B080BD3C0A002043
:102DF00090090020480A0020580A0020440A0020B8
:102E00009409002080B584B000AF7860FFF77AFEA7
:102E10007B68002B02D1204B1B6800E07B68FB60C5
:102E2000FB680433181CFFF7C5FDFB689B6A002B89
:102E300004D0FB681833181CFFF7BCFDFB68043393
:102E4000164A101C191CFFF793FDFFF76BFE144B7D
:102E50001B68002B05D0FFF755FE00F0BDFAFFF709
:102E600061FE0D4B1B68FA689A4212D10C4B1B682D
:102E7000002B02D0FFF738FE0BE0084B1A68094B15
:102E80001B689A4203D1044B00221A6001E000F053
:102E9000EFF9BD4604B080BD90090020280A00204B
:102EA000480A00203C0A002080B584B000AF78605A
:102EB0000023FB607B68BB60BB685A690E4B9A427B
:102EC00001D1012300E00023002B0FD0BB689A6AD8
:102ED0000A4B9A420AD0BB689B6A002B01D101239E
:102EE00000E00023002B01D00123FB60FB68181CCD
:102EF000BD4604B080BDC046280A0020000A00205C
:102F000080B584B000AF78607B68FB60FB68002B05
:102F100034D01C4B1B68FA689A422FD0FFF7F2FDA1
:102F2000FB68181CFFF7C0FF031E25D0FB680433A5
:102F3000181CFFF73FFDFB68DA6A134B1B689A42C7
:102F400003D9FB68DA6A104B1A60FB68DA6A131C53
:102F50009B009B189B000D4A9A18FB680433101CB9
:102F6000191CFFF705FDFB68DA6A064B1B68DB6A74
:102F70009A4201D3FFF7B8FDFFF7D4FDBD4604B078
:102F800080BDC04690090020440A0020940900201A
:102F900080B584B002AF1049104A00230093104B53
:102FA0000193081C111C5B220023FFF713FE031C76
:102FB0007B607B68012B0CD172B60A4B0122524216
:102FC0001A60094B01221A60084B00221A60FFF7B1
:102FD00069FDBD4602B080BD093300007476000073
:102FE000600A00205C0A0020480A0020400A0020F5
:102FF00080B500AF034B1B685A1C024B1A60BD46DC
:1030000080BDC046640A002080B584B000AF0023B4
:10301000FB600023BB60FFF775FD364B1B685A1E33
:10302000344B1A60334B1B68002B5BD1324B1B684F
:10303000002B57D02FE0314BDB68DB68FB60FB686F
:103040001833181CFFF7B6FCFB680433181CFFF795
:10305000B1FCFB68DA6A2A4B1B689A4203D9FB6809
:10306000DA6A274B1A60FB68DA6A131C9B009B180C
:103070009B00244A9A18FB680433101C191CFFF7A4
:1030800077FCFB68DA6A204B1B68DB6A9A4202D342
:103090001E4B01221A60194B1B68002BCBD1FB6819
:1030A000002B01D000F098F9194B1B687B607B68FE
:1030B000002B0FD000F02EF8031E02D0134B01227C
:1030C0001A607B68013B7B607B68002BF2D1104B60
:1030D00000221A600D4B1B68002B03D00123BB603C
:1030E000FFF702FDFFF71EFDBB68181CBD4604B0CC
:1030F00080BDC046640A00203C0A0020000A00206F
:10310000440A00209409002090090020500A002061
:103110004C0A002080B586B000AF00237B61494B8C
:103120001B68002B00D07CE0474B1B6801333B61E0
:10313000454B3A691A603B69002B10D1434B1B6821
:10314000FB60434B1A68414B1A60414BFA681A60A6
:10315000404B1B685A1C3F4B1A6000F03DF93E4B38
:103160001B683A699A424ED3384B1B681B68002B88
:1031700001D1012300E00023002B04D0364B0122B3
:1031800052421A603FE0314B1B68DB68DB68BB6072
:10319000BB685B687B603A697B689A4203D22E4BBE
:1031A0007A681A602FE0BB680433181CFFF702FC32
:1031B000BB689B6A002B04D0BB681833181CFFF750
:1031C000F9FBBB68DA6A254B1B689A4203D9BB68D6
:1031D000DA6A224B1A60BB68DA6A131C9B009B18E0
:1031E0009B001F4A9A18BB680433101C191CFFF778
:1031F000BFFBBB68DA6A1B4B1B68DB6A9A4201D3D0
:1032000001237B61B0E7174B1B68DA6A1449131C72
:103210009B009B189B005B58012B01D901237B610C
:1032200004E0114B1B685A1C0F4B1A600F4B1B68B4
:10323000002B01D001237B617B69181CBD4606B0C1
:1032400080BDC046640A0020400A0020F809002022
:10325000FC090020540A00205C0A0020440A0020D7
:1032600094090020900900204C0A0020500A0020F8
:1032700080B582B000AF1F4B1B68002B03D01E4BE4
:1032800001221A6032E01C4B00221A601B4B1B68A3
:103290007B6002E07B68013B7B6019497A68131C04
:1032A0009B009B189B005B58002BF3D07A68131C83
:1032B0009B009B189B00124A9B183B603B685B6815
:1032C0005A683B685A603B685A683B6808339A42C0
:1032D00004D13B685B685A683B685A603B685B682E
:1032E000DA68084B1A60054B7A681A60BD4602B06E
:1032F00080BDC046640A0020500A0020440A002015
:10330000940900209009002080B582B000AF786059
:103310000C4B01221A7001F06BFA0A4B1B78181C37
:1033200001F00AFC084AD023D3589B08012213401D
:1033300006D001F0D1FA054B1B68181CFFF7E0FD21
:10334000E6E7C0466D0B002000600040740B0020D3
:1033500080B582B000AF00237B600CE07A68131C5C
:103360009B009B189B00144A9B18181CFFF7D8FA67
:103370007B6801337B607B68022BEFD90F4B181CF5
:10338000FFF7CEFA0E4B181CFFF7CAFA0D4B181CAC
:10339000FFF7C6FA0C4B181CFFF7C2FA0B4B181CB0
:1033A000FFF7BEFA0A4B054A1A600A4B044A1A6034
:1033B000BD4602B080BDC04694090020D00900205F
:1033C000E4090020000A0020140A0020280A002036
:1033D000F8090020FC09002080B582B000AF0D4B39
:1033E0001B681B68002B01D1012300E00023002B88
:1033F00004D0094B012252421A6008E0054B1B68B9
:10340000DB68DB687B607B685A68034B1A60BD46EB
:1034100002B080BDF80900205C0A002080B500AF32
:10342000054B054A926801218A439A60024B0022AB
:10343000DA63BD4680BDC04600000C4080B584B054
:1034400000AF7860184BFB6002E0FB68013BFB605B
:10345000164BDB690122134002D0FB68002BF4D12C
:10346000FB68002B01D1FD2319E0104B7A681A612B
:103470000E4B0122DA600D4BDB69BB60BB68062294
:1034800013400BD0BB680422134001D0FF2306E099
:10349000BB680222134001D0FE2300E000235BB290
:1034A000181CBD4604B080BD8096980000000C40FA
:1034B00080B588B000AF786039601623FB18002211
:1034C0001A701723FB1800221A703B68002B5BD080
:1034D000EFF31083FB60FB683B6172B60023BB61B6
:1034E00035E008E02C4BDB6919221340102B02D188
:1034F000294B1022DA60284BDB6908221340F1D0F7
:103500001623FB181B7801225340DBB2002B0DD091
:10351000214A7B681B6893611F4B1022DA607B682D
:1035200004337B60BB690133BB6110E01A4A7B68DE
:103530001B689361BB690122134002D0164B102215
:10354000DA607B6804337B60BB690133BB61BA69B5
:103550003B689A42C5D33B69002B00D162B60F4B42
:10356000FB6102E0FB69013BFB610B4BDB69012264
:10357000134002D0FB69002BF4D1FB69002B03D16F
:103580001723FB18FD221A701723FB181B785BB258
:10359000181CBD4608B080BD00000C408096980005
:1035A00090B58BB000AFF860B9607A601B23FB1850
:1035B00000221A70314B314A926801210A439A6005
:1035C0007B689B087B6100237B62BB68FB6143E0F7
:1035D0007B6A9B00FA68D3181B22BC18181CFFF7E3
:1035E0002DFF031C23701B23FB181B785BB2002BE1
:1035F00003D01B23FB181B783BE07B6A9B00FA6817
:10360000D3189B059B0D8022D200D31A9B083B62E6
:103610007A697B6AD21A3B6A9A4203D27A697B6AD8
:10362000D31A3B621B23FC18FA693B6A101C191C55
:10363000FFF73EFF031C23701B23FB181B785BB2B4
:10364000002B00D00CE07A6A3B6AD3187B623B6A9D
:103650009B00FA69D318FB617A6A7B699A42B7D3F7
:10366000064B064A926801218A439A601B23FB1885
:103670001B785BB2181CBD460BB090BD00000C401F
:1036800080B584B000AF7860194BFB60194B194AC4
:10369000926801210A439A60164B7A681A61154BA9
:1036A0000122DA60134B0222DA6002E0FB68013B80
:1036B000FB60104BDB690122134002D0FB68002B3A
:1036C000F4D1FB68002B07D10A4B0A4A926801210A
:1036D0008A439A60FD2306E0064B064A9268012160
:1036E0008A439A6000235BB2181CBD4604B080BDBB
:1036F0008096980000000C4080B586B000AFF8605E
:103700007A600A23FB180A1C1A80FFF787FE17232A
:10371000FB1800221A7011E01723FB181B787A6837
:10372000D318FA6812781A70FB680133FB6017230C
:10373000FB181A781723FB1801321A701723FB188D
:103740001B789BB20A22BA1812889A42E4D8BD4666
:1037500006B080BD80B584B000AFF8607A600A23FF
:10376000FB180A1C1A800B4B0B4ADA63FB68181C07
:10377000FFF786FFF9680A23FB181B887A68081C84
:10378000111C1A1CFFF70CFF024B0022DA63BD4626
:1037900004B080BD00000C40711B000098B500AF64
:1037A000FE231A050F4B101C18211A1CFFF7A4FF4B
:1037B0000C4B1B78AA2B12D00A4BAA221A70094A6A
:1037C000094B02249360D460064B084A1A82FE23F8
:1037D0001A05044B101C18211A1CFFF7BBFFBD462D
:1037E00098BDC04638020020801B6AC5F82A000038
:1037F00080B582B000AF0B4B1B68002B0DD0094B7E
:103800001B685A1E074B1A60064B1B687B607B685F
:10381000002B00D162B67B6800E00023181CBD4677
:1038200002B080BD680A002090B587B000AF041CCC
:10383000081C111CFB1D221C1A70BB1D021C1A70D7
:103840007B1D0A1C1A70FB1D1B78012B09D0032B52
:1038500000D025E001233B610223FB6001237B6153
:1038600006E040233B618023FB6007237B61C04669
:10387000BB1D1B78002B10D00B4B3A691A627B1DC5
:103880001B78002B0CD0C046074BDA6A7B69DA4004
:10389000131C01221340F7D002E0034BFA681A62AE
:1038A000BD4607B090BDC04600800C4080B586B0D4
:1038B00000AF78600A1CFB1C1A7000237B6101209A
:1038C00001210122FFF7B0FF01233B61FB68022BBE
:1038D0000BD10D4B0C4A926A0C4911403A691143C5
:1038E0007A6912040A439A620BE0074B064A926A0D
:1038F000074911403A69920011437A6912050A4357
:103900009A62BD4606B080BD00800C40FCFFFEFF01
:10391000F3FFEFFF80B586B000AF78600A1CFB1C98
:103920001A7000233B617B681B0A0F2213400A2B8D
:1039300041D89A00224BD3181B689F46214B7B61CC
:1039400012E0214B7B610FE0204B7B610CE0204BB0
:103950007B6101233B6107E01E4B7B6110233B61D0
:1039600002E01D4B7B61C0467B681B0B1F2213408E
:10397000FB603B69002B0BD0184B5B6D01221340A1
:1039800000D019E0C046154B1B6D3A691340FAD1BF
:103990007B691B68FA68012191400A1CD2431340DD
:1039A000FA1C127801211140FA6891400A1C1A434E
:1039B0007B691A6000E0C046BD4606B080BDC046C7
:1039C0007C76000040800C4008800C4044800C4015
:1039D00058800C4060800C4078800C4000800C4087
:1039E00080B500AF012001210122FFF71DFF124B1E
:1039F0005B681A1C0F231340104ADA40104B1A6000
:103A0000104B181C0121FFF785FF0F4B181C0121DB
:103A1000FFF780FF0D4B181C0121FFF77BFF0C4BBC
:103A2000181C0121FFF776FF0A4B181C0121FFF734
:103A300071FFBD4680BDC04600800C40809FD50010
:103A4000080000200023020000A20400003204004D
:103A50000072040000B2040080B500AF084B0A22D7
:103A60005A60074B074A1A60054B0A225A60044BFA
:103A7000054A5A63024B054ADA60BD4680BDC0461E
:103A800000200040102B0D0005430B3E0006620095
:103A900080B582B000AF2C4B181C0121FFF73AFF14
:103AA0002A4B2B4ADA60294B00221A60274B294AFD
:103AB0005A60264B00229A60244B00225A61234B05
:103AC0000022DA64214B244A9A64204B00225A6572
:103AD0001E4B00221A651D4B00229A651B4B0022CB
:103AE000DA651A4B194A126801210A431A60174B0A
:103AF000184A5A6045237B607B681B027B607B68A9
:103B0000164A13407B60114B104A52691449114008
:103B10007A680A435A610D4B1022DA600B4B05227A
:103B2000DA600A4B094A526D0B210A435A65074B6A
:103B300000225A63C046054B1B6920221340FAD06D
:103B4000BD4602B080BDC0460032040000C4004043
:103B5000AA0E000005100000F91F0000C0FF1F00A2
:103B60003F00E0FF80B582B000AF021CFB1D1A7061
:103B7000064B064A126801218A43111CFA1D12786D
:103B80000A431A60BD4602B080BDC046000008402E
:103B900080B582B000AF021CFB1D1A700649FB1DE8
:103BA0001B781A1C1F23134001229A40C0235B007C
:103BB000CA50BD4602B080BD00E100E080B582B0D1
:103BC00000AF021CFB1D1A70064BFA1D1278111C67
:103BD0001F220A40012191400A1C1A60BD4602B012
:103BE00080BDC04600E100E0B0B582B000AF021C6D
:103BF0003960FB1D1A70154CFB1D1B785BB29B08CE
:103C00001249FA1D127852B29208C03292005258EC
:103C1000F91D0978081C03210140C900081CFF2177
:103C20008140C94311403A689201FF200240F81DCB
:103C30000078051C03202840C00082400A43C0339E
:103C40009B001A51BD4602B0B0BDC04600E100E085
:103C500080B584B000AF78607A68F8239B03134086
:103C6000E0221203934259D0E0221203934213D868
:103C700080229202934237D080229202934202D84D
:103C8000002B1FD047E08022D20293421FD0C022D7
:103C90001203934244D03EE0B0225203934231D00B
:103CA000B0225203934204D880225203934220D080
:103CB00031E0D0225203934234D0E02252039342A7
:103CC00032D028E0FCF782FA031CFB602DE0FCF701
:103CD0007DFA031CFB60174B9B680F2213401A1CD4
:103CE000FB68D340FB6020E0FCF754FA031CFB6048
:103CF0001BE0104B9B6E0F2213401A1CFB68D34035
:103D0000FB6012E00B4B1B6F032213401A1CFB6875
:103D1000D340FB6009E00023FB6006E0C04604E0FE
:103D2000C04602E0C04600E0C046FB68181CBD4625
:103D300004B080BD00800C4080B582B000AF021C92
:103D4000FB1D1A70084B084A1268F91D0978081CF7
:103D50001F21014001208840011CC9430A401A600C
:103D6000BD4602B080BDC04600E100E080B500AFB6
:103D7000074B074A526D03218A435A65054B181CAD
:103D80000021FFF7C7FD0A20FFF7D6FFBD4680BD23
:103D9000004008407007160080B582B000AF304B7D
:103DA000181C0221FFF782FD2E4B181C0121FFF782
:103DB000B1FD2D4B2C4A526D0421FF310A435A6547
:103DC000294B1B6C0122134000D046E0C046264B15
:103DD0005B6C02221340FAD1234B0A225A60C04680
:103DE000214B5B6C002BFBD11F4B01221A641E4B35
:103DF0001D4A12681C218A431A601A4B181CFFF7CF
:103E000027FF031C7B606D233B603B68203B3B60CE
:103E10003B68DB003B603B68144A13403B60C04694
:103E2000114B5B6C04221340FAD10F4B3A68DA60F5
:103E30000D4B05225A600C4B00221A640A4B0A4AA9
:103E4000926B1C210A439A63074B094A5A630A2062
:103E5000FFF79EFE0A20FFF7B1FEBD4602B080BD0F
:103E600003001C007007160000400840F87F0000A7
:103E7000FF07000080B582B000AF78600F4B5B6D2C
:103E80000122134000D016E0C0460C4B1B6D0422EB
:103E90001340FAD1786800F0E7FF031C1A1C1F23B7
:103EA0009B1A7B60054B054A926E0F218A43111CB9
:103EB0007A680A439A66BD4602B080BD00800C4015
:103EC00080B582B000AF012001210122FFF7ACFCD8
:103ED000064B7B60C046064B9B6801221340FAD11B
:103EE000034B7A681A60BD4602B080BD010F000026
:103EF0000080084080B500AF0B4B1B6801221340C7
:103F000000D10EE0084B9B680222134000D008E06D
:103F1000C046054B9B6801221340FAD1024B012297
:103F20005A60BD4680BDC0460080084080B500AFE5
:103F3000C046064B9B6801221340FAD1034B034A4B
:103F4000126810210A431A60BD4680BD00800840F7
:103F500080B584B000AFF860B9607A60FB681B6818
:103F6000BA68D2431A407B681A43FB681A60BD46A0
:103F700004B080BD80B500AF204B204A926B204931
:103F80000A40C021C9000A439A631C4B1B4A926B2A
:103F900003210A439A63194B00225A63174B194AAB
:103FA0001A63164B00221A60144B00221A61134B3D
:103FB00000225A61114B00229A61104B00225A6371
:103FC0000E4B104A1A630D4B01221A610B4B9B6872
:103FD0000122134002D0094B20225A60074B0A4AA3
:103FE0001A600A49A42280239B018B500749A4220E
:103FF00080235B018B50BD4680BDC04600A00040C1
:10400000FFF8FFFFCFFF0100030003000060004046
:10401000B0B584B000AFB960111C7B600F23FB18F2
:10402000021C1A700E23FB180A1C1A700E23FB18B0
:104030001B78002B23D07B68002B10D04E490F2318
:10404000FB181A78BB6801209840031C181C131C2D
:10405000DB009B189B00CB18103318600FE046491B
:104060000F23FB181A78BB6801209840031C181C0A
:10407000131CDB009B189B00CB1810335860BB68E7
:10408000072B22D83C4C0F23FB181A783A480F23F1
:10409000FB1819780B1CDB005B189B00C3185B68CE
:1040A000B9688900081C0F218140C9430B400E21CB
:1040B00079180978B868800081401943131CDB0027
:1040C0009B189B00E318596029E02B4C0F23FB1829
:1040D0001A7829480F23FB1819780B1CDB005B1892
:1040E0009B00C31808331B68B968244884466144A0
:1040F0008900081C0F218140C9430B400E2179180B
:104100000978B8681D4DAC46604480008140194371
:10411000131CDB009B189B00E318083319600E2367
:10412000FB181B78002B23D17B68002B10D0124981
:104130000F23FB181A78BB6801209840031C181C39
:10414000131CDB009B189B00CB18103318600FE08A
:1041500009490F23FB181A78BB6801209840031CFB
:10416000181C131CDB009B189B00CB1810335860E5
:10417000BD4604B0B0BDC04600600040F8FFFF3F40
:1041800080B586B000AFB9607A60191C0F23FB18A8
:10419000021C1A700E23FB180A1C1A7000237B6184
:1041A0007B68072B11D87B689B001A1C0723934060
:1041B000191C0F23FB181B787A68920093401A1C75
:1041C000344B181CFFF7C4FE13E07B68083B7B618F
:1041D0007B699B001A1C07239340191C0F23FB18B3
:1041E0001B787A69920093401A1C2B4B181CFFF71E
:1041F000AFFE2A48294A84235B00D3587A680121FC
:1042000091400A1CD24313400E22BA1812780121A1
:1042100011407A6891400A1C1A4384235B00C25003
:104220001E481E4A86235B00D3587A6801219140BC
:104230000A1CD24313402022BA18127801211140DF
:104240007A6891400A1C1A4386235B00C250134AC5
:104250007B68012199400B1C191C8E235B00D150F7
:104260000E480E4A88235B00D3587A68012191409A
:104270000A1CD24313402422BA181278012111409B
:104280007A6891400A1C1A4388235B00C250BD46DD
:1042900006B080BD00610040046100400060004045
:1042A00080B582B002AF0620FFF772FC0620FFF750
:1042B00085FC0120FFF76CFC0120FFF77FFC00204C
:1042C000002101220023FFF7A3FE01200B21012280
:1042D0000023FFF79DFE012300930123019300209B
:1042E000002100220023FFF74BFF0023009301234E
:1042F000019301200B210B220123FFF741FFBD4653
:1043000080BDC04680B500AF614B614AD2680121D3
:104310000A43DA605E4B5E4A52680F218A430121EC
:104320000A435A605A4B5A4A926A12011209802172
:10433000C9050A439A62564B554AD26A0F218A43ED
:1043400004210A43DA62524B514A126B802109015F
:104350000A431A634E4B4E4AD26A4E490A408021A4
:1043600049010A43DA624A4B494AD26A4A490A4039
:104370008021C9030A43DA62454B454A126B80210A
:10438000C9010A431A63424B414AD26A43490A406F
:10439000802149040A43DA623D4B3D4AD26C0F2129
:1043A0008A4304210A43DA64394B394AD26CF0213A
:1043B0008A4310210A43DA64354B354A526D802115
:1043C000C9010A435A65324B314A126D33490A40DA
:1043D000A021C9040A431A652D4B2D4A526D802134
:1043E00009020A435A652A4B294A126D1201120921
:1043F000A021C9050A431A652549254A9823D3589F
:10440000274A1340B0221203134398228B502049AD
:104410001F4A9823D358204A1340B0221204134352
:1044200098228B501F4B1F4A926B1F490A40C02194
:10443000C9000A439A631B4B1A4A926B03210A4331
:104440009A631349124AC023D35801221343C0224E
:104450008B500F490E4AB823D3580F22934305229D
:104460001343B8228B500A49094AC023D358042267
:104470001343C0228B500649054AB823D3580B4A30
:104480001340C02292001343B8228B50BD4680BD1A
:1044900000600040FF0FFFFFFFFF0FFFFFFFFFF077
:1044A000FFFFF0FF00A00040FFF8FFFFFFF0FFFF5D
:1044B00080B582B000AF78607B68002B00D162B617
:1044C000BD4602B080BDC04680B500AFFFF788FA98
:1044D000FFF718FF0C4AD023D3589B080122134042
:1044E00001D1FFF759FCFFF7B7FAFFF7D1FAFFF751
:1044F000E7FCFFF71BFDFFF7FDFCFFF7D1FEFFF721
:1045000039FDBD4680BDC0460060004080B582B028
:1045100000AFFB1D00221A700AE0FB1D1A78084B41
:1045200092000021D150FB1D1A78FB1D01321A7038
:10453000FB1D1B78082BF0D9BD4602B080BDC046DC
:10454000480B002080B582B000AF021C3960FB1D13
:104550001A70FB1D1B78082B05D8FB1D1A78034B1E
:1045600092003968D150BD4602B080BD480B002092
:1045700080B582B000AF021CFB1D1A70FB1D1B78BA
:10458000082B05D8FB1D1A78034B92000021D1504F
:10459000BD4602B080BDC046480B002080B500AFCC
:1045A0000C4B1B78002B02D00B4B01221A700A4BCC
:1045B0001B78002B05D0A023DB000120191CFFF77E
:1045C000C1FF064B802292015A63024B00221A70EF
:1045D000BD4680BD9D0A0020440B002000600040C5
:1045E00080B582B000AFFB1D00221A7056E0FB1DA3
:1045F0001A782E4B9200D358002B4AD0FB1D1B7803
:104600002A4A99008A58511E284A9B009950FB1D3E
:104610001A78264B9200D358002B3AD1FB1D1B78F9
:10462000082B35D89A00224BD3181B689F46214B84
:1046300001221A702DE0204B01221A700220402125
:10464000FFF780FF25E01D4B01221A70C0235B009D
:104650000320191CFFF776FF00204021FFF772FFAF
:1046600017E0FFF79BFF14E0154B00221A70144B64
:1046700000229A700DE0134B00221A7009E0FE230D
:104680001A05114B101C18211A1CFFF763F800E0E3
:10469000C046FB1D1A78FB1D01321A70FB1D1B78EA
:1046A000082BA4D9BD4602B080BDC046480B0020EF
:1046B000A87600006D0B00206E0B0020450B00203B
:1046C000A80A0020C00A00203802002080B500AFF0
:1046D000064B00221A70064B00221A70A023DB0042
:1046E0000120191CFFF72EFFBD4680BD450B0020A1
:1046F0006D0B002080B584B000AF021CFB1D1A704A
:10470000FB1D1B78002B04D1264BDA6A264B1A605E
:1047100045E0FB1D1B78012B41D1224A8423D3584D
:1047200001221340FB601F4A84232049D1500023FB
:10473000BB601D4B1B6801221340BA681343BB606A
:10474000194B1B6810221340BA681343BB60164B09
:104750001B6840221340BA681343BB60124B1B68AE
:1047600004221340BA681343BB600F4B1A688023BE
:104770005B001340BA681343BB600A4BBA681A6205
:10478000094B1B680122134002D1064B02221A6218
:10479000FB68002B03D0034A84230021D150BD467F
:1047A00004B080BD00800C40700A00200E5800004C
:1047B00080B582B000AF021CFB1D1A700020FFF70D
:1047C00099FF0A4B094A126904210A431A6130BF52
:1047D000FB1D1B78002B03D00120FFF78BFF01E0AE
:1047E000FBF7D8FCBD4602B080BDC04600ED00E03E
:1047F00080B500AFFFF77EFB074B802292015A6322
:10480000054B802292015A63FDF7ACFF024B8022D8
:10481000D201DA65BD4680BD0060004080B582B03F
:1048200000AF786039607868396800F013FB031EC8
:1048300026D07868396801F02BF8031C181CFE217B
:10484000890500F0FDFA031E0ED07868396801F082
:104850001FF8031C1A1C80231B065340181C1D49FB
:1048600000F0E4FE031C31E07868396801F010F8CC
:10487000031CFE208005191C01F00AF8031C25E02A
:104880003868796801F004F8031C181CFE218905BA
:1048900000F0D6FA031E0ED03868796800F0F8FFF1
:1048A000031C1A1C80231B065340181C094900F0E6
:1048B000BDFE031C0AE03868796800F0E9FF031CBC
:1048C000FE208005191C00F0E3FF031C181CBD46E8
:1048D00002B080BD0000A04180B500AFFFF70AFB29
:1048E0003F4B8022D2019A653E4B1B78002B16D09D
:1048F0000420FFF73DFE3C4B01221A703B4B032284
:104900001A70384B00221A701920FDF7DBF9FBF7FB
:1049100079FFFBF7C7FE364B364A1A605EE0192076
:10492000FDF7D0F9FBF76EFFFBF7BCFE0420FFF7A5
:104930001FFE314B1B780133DAB22F4B1A702E4B0E
:104940001B78181C01F042F9021C294B1B68101C33
:10495000191C00F06BFE031C181C264900F07AFAA3
:10496000031E07D1FBF79EFE031C181CFBF77CFF00
:10497000031E24D01C4B01221A701F4B1B78181CDD
:1049800001F024F9021C1A4B1B68101C191C00F0C2
:104990004DFE031C181C174900F05CFA031E03D0DF
:1049A000124B02221A7002E0104B01221A70124BB5
:1049B00000221A7001200021FFF7C4FD03E001204E
:1049C0000121FFF7BFFD0D4B1A680D4B1B68101C32
:1049D000191CFFF723FF021C0A4B1A60BD4680BD5D
:1049E000006000409D0A0020450B00209C0A00202A
:1049F000540200200000F0423C0B0020900A0020EE
:104A00007C0A00206C0A002080B582B000AFFFF75E
:104A100071FA114B07229A61FFF7E2FD0020FFF7C0
:104A2000A1F80D4A0D4B1B6893600120FFF79AF81F
:104A3000FEF788F8FEF76EFB031C7B607B68002B9B
:104A400003D0074B802252051A600020FEF780F841
:104A5000BD4602B080BDC0460000084050020020A4
:104A600004ED00E080B500AF184B181C0321FEF7E1
:104A70001DFF0820FFF7FEF9154B181C0121FEF75A
:104A800049FF144B04221A60124B124AD2690221C8
:104A90008A43DA610C20FF21FFF7A6F80C20FFF70C
:104AA00077F80C20FFF78AF80A4A0B4B1B689360D3
:104AB000084B02229A61074B064AD26902210A4337
:104AC000DA610120FFF74EF8BD4680BD02001A00F2
:104AD000600610000000084050020020B0B500AF92
:104AE000134B1B68181C134900F096F9031E03D0E2
:104AF0000F4B104A1A600AE00D4B1B68181C0D4939
:104B000000F09EF9031E02D0094B0A4A1A60084BB6
:104B10001B68181C00F0FCF9021C0B1C110D1D0376
:104B20000D431403231C2C1C181C211CBD46B0BDB6
:104B3000540200200000F04290B585B000AF7860CC
:104B40000020FFF70FF8114CFFF7C8FF021C0B1CE9
:104B5000131CA3600120FFF705F80120FFF728FED2
:104B6000FB68181CFFF7A4FCBFF34F8FBFF36F8FD8
:104B70000020FEF7F7FF054A054B1B6893600120F4
:104B8000FEF7F0FFBD4605B090BDC04600000840EE
:104B90005002002080B500AFBD4680BD80B582B018
:104BA00000AF78601D4B00221A801D4B00221A8036
:104BB000FDF7A8F81B4B00221A700DE0FDF758F81E
:104BC000194B1B78012B07D1FFF7D0F8164B0022A9
:104BD0001A700020FEF716F9144AD023D3589B0808
:104BE00001221340EAD0124B1B78002B11D0114B3D
:104BF0001B78002B01D1FDF7D9FDFBF769FE0020E2
:104C0000FDF728FA0A4B00221A700020FEF7FAF886
:104C100002E00020FEF7F6F8CFE7C046360B002092
:104C2000380B0020700B00206D0B0020006000404E
:104C3000450B00203A0B002080B582B002AFFFF791
:104C4000A9FFFFF741FCFEF7A9FDFFF75FFC1B4B37
:104C50008022D2019A65194B802292019A63174BE8
:104C6000802292019A63FFF731FDFBF719FB1920AF
:104C7000FDF728F8FBF716FDFBF7C4FD104B0122EA
:104C80001A700E4B802292015A630C4B80229201C3
:104C90005A63FEF7ADFD0B490B4A012300930B4B02
:104CA0000193081C111C65220023FDF793FFFEF7FA
:104CB0006FF90023181CBD4680BDC046006000404F
:104CC000450B00209D4B0000CC760000740B0020AB
:104CD000002243088B4274D303098B425FD3030A3B
:104CE0008B4244D3030B8B4228D3030C8B420DD34E
:104CF000FF22090212BA030C8B4202D312120902DC
:104D000065D0030B8B4219D300E0090AC30B8B4219
:104D100001D3CB03C01A5241830B8B4201D38B03C7
:104D2000C01A5241430B8B4201D34B03C01A52416C
:104D3000030B8B4201D30B03C01A5241C30A8B42AF
:104D400001D3CB02C01A5241830A8B4201D38B029A
:104D5000C01A5241430A8B4201D34B02C01A52413E
:104D6000030A8B4201D30B02C01A5241CDD2C309B0
:104D70008B4201D3CB01C01A524183098B4201D32C
:104D80008B01C01A524143098B4201D34B01C01A17
:104D9000524103098B4201D30B01C01A5241C3088F
:104DA0008B4201D3CB00C01A524183088B4201D3FE
:104DB0008B00C01A524143088B4201D34B00C01AEA
:104DC0005241411A00D20146524110467047FFE756
:104DD00001B5002000F00CF802BDC0460029F7D054
:104DE00003B5FFF775FF0EBC4243891A1847C0464A
:104DF0007047C0468446081C6146FFE71FB500F0B7
:104E0000CFFB002801D40021C8421FBD10B500F01F
:104E100053FB4042013010BD10B500F0C1FB00282B
:104E200001DB002010BD012010BDC04610B500F010
:104E3000B7FB002801DD002010BD012010BDC046D9
:104E400010B500F063FB002801DC002010BD01203C
:104E500010BDC04610B500F059FB002801DA002053
:104E600010BD012010BDC0461C2101231B04984227
:104E700001D3000C10391B0A984201D3000A0839EB
:104E80001B09984201D30009043902A2105C4018A2
:104E90007047C04604030202010101010000000046
:104EA000000000009E2110B5C905041CFFF7D2FFC9
:104EB000002803D1201C00F069FE10BD9E21201C9B
:104EC000C90500F0E5FC00F061FE80231B069C464E
:104ED0006044F2E738B500220C4B041C0D1C02F0B4
:104EE0002DF9002804D1201C291C02F037F838BD08
:104EF000064B0022201C291C01F0B6FC02F02EF803
:104F000080231B069C466044F1E7C0460000E04158
:104F100070B502F08BF800220B4B0D1C041C01F045
:104F200009FAFFF7D7FF061C02F04EF80022074BE4
:104F300001F000FA021C0B1C201C291C01F094FC3F
:104F4000FFF7C8FF311C70BD0000F03D0000F041CC
:104F5000F8B54A00430244004E02C50F240E281C37
:104F60009B09120EC90FB7098D4240D0A01A002824
:104F700000DC84E0002A1CD1002F5CD15A0704D049
:104F80000F221A40042A00D004338022D2041A408F
:104F9000281C002A24D00134FF2C00D17BE09B0187
:104FA0005B0AE4B25B02E4055B0A2343C0071843D3
:104FB000F8BDFF2CE2D08022D204174301261B2823
:104FC00008DC391C20223E1CC140101A8640771E86
:104FD000BE410E439B1B5A0133D4281C5A07CFD124
:104FE000DB08FF2C1ED05B025B0AE4B2DAE7A11AF1
:104FF000002957DD002A3AD0FF2CBFD08022D204EE
:10500000174301261B2972DD9B195A01E5D501348E
:10501000FF2C00D187E001218A4A194013405B0828
:105020000B43ABE7002B36D08022D20313435B0245
:105030005B0AFF24B6E7013800283FD1DB1B5A0189
:10504000CBD59B019E09301CFFF70EFF053886402B
:10505000844223DC001B1F24321C431C201ADA402C
:105060008640131C741EA6410024334386E7002F9C
:1050700000D183E70139002950D1DB19C5E70028A9
:1050800020D1621CD2B2012A5EDDDE1B720128D55E
:10509000FE1A0D1CD7E7FF24002383E7694B241A6F
:1050A00033406BE7002958D1621CD1B201293CDDA5
:1050B000FF2A37D0FB185B08141C5FE7FF2C00D0D9
:1050C0007CE75BE7002C1ED0FF2A23D08024E40479
:1050D000404223431B285BDD0123FB1A141C0D1CDB
:1050E000ADE7002EAFD100230020002478E73A1C62
:1050F000CA40944620223E1C511A8E406246771EBA
:10510000BE41164380E7002B3ED0C0430028E4D0C8
:10511000FF2ADFD13B1CFF240D1C2FE7FF2C00D002
:105120006FE72BE7FF2400235AE7002C5AD1002B0E
:105130007FD0002F00D121E7DB195A0100D44CE7C2
:10514000404A0134134019E7002C15D1002B2FD110
:10515000002F5DD03B1C0D1C10E7002C21D1002B33
:1051600053D0C943002904D0FF2A4BD01B2957DD57
:105170000123DB19141C48E7002B22D1002F4AD051
:105180003B1C0D1CFF24F9E63B1C141C0D1CF5E612
:105190001D1C2024C540201A8340581E83412B43E8
:1051A0009BE7FF2A2ED08024E40449422343DDE715
:1051B000002F00D1E2E6DA1B50013CD5FB1A0D1C92
:1051C000DCE6FF24002F00D1D8E68022DB08D203E2
:1051D000134204D0FE08164201D1331C0D1CDB0023
:1051E000FF24CBE6002B0DD0FF24002F00D1C5E615
:1051F0008022DB08D2031342F1D0FE081642EED122
:10520000331CECE73B1CFF24B8E63B1C141CB5E642
:10521000231C0020E4E6802300209B04FF24DFE61B
:105220001E1C2024CE40611A8B40591E8B413343F3
:105230009FE73B1CA2E6131E00D0CEE60023002011
:10524000CEE6C046FFFFFFFBF0B556464D465F4633
:105250004446F0B443024500C70F83B08A465C0A57
:105260002E0EB94641D0FF2E26D080231B042343A7
:10527000DC00002398469B467F3E53465B025D0A56
:1052800053465A00DB0F120E9A4639D0FF2A33D00C
:1052900080231B042B43DD0000237F3A5146B21AC2
:1052A00046467940081C01921E430F2E00D976E035
:1052B0007E4AB6009659B746002C30D1082398464E
:1052C000063B9B46D9E780230021DB03FF245B02DA
:1052D000E4055B0AC90723430B43181C03B03CBC1D
:1052E00090469946A246AB46F0BD002C28D1042337
:1052F0009846033B9B46C0E7002D1FD1022302E0E6
:10530000002D11D10123B21A504646467840019231
:105310001E430F2E27D86649B60089598F460C23A5
:105320009846093B9B46A8E7281CFFF79DFD76227F
:10533000431F52429D40121A0023AFE70323ADE7FB
:10534000201CFFF791FD431F9C4076235B421E1AF1
:10535000002398469B4690E70025D1469B465B4636
:105360004846022B6FD10121FF2401400023AEE704
:105370007E23019A5B429B1A1B2B6DDD01214B465C
:10538000194000240023A2E78023DB031C4249D1FB
:105390008023DB0323435B025B0A391C96E763012E
:1053A0006D01AB4237D389461A2001215B1B0124D2
:1053B0001E1C49005B00002E01DBAB4201D35B1BCE
:1053C000214301380028F3D1581E83410B431D1C93
:1053D000019C7F34002CCBDD6B0704D00F232B40C6
:1053E000042B00D004352B0104D5019A314B8032B7
:1053F000141C1D40FE2C07DD4B460121FF241940E3
:10540000002364E7251CAAE701214A46AB015B0A99
:10541000E4B211405BE7019A8946013A01921B20F0
:105420000021C4E71D4207D023435B025B0A391CFD
:105430004CE700256302ABD58023DB032B435B02E3
:105440005B0A514642E7032B25D0012BC0D1012135
:105450000024014000233AE7291CD9402B1C019A63
:105460009E3293405D1EAB410B435A0704D00F227E
:105470001A40042A00D004335A0105D54B460121B5
:1054800001241940002322E701214A469B015B0ABF
:10549000114000241BE7802301214A46DB032B43F4
:1054A0005B020A405B0A111C10E7C046D876000078
:1054B00018770000FFFFFFF7430270B542004C0071
:1054C0005D0AC30F4802120E460A240EC90FFF2AB6
:1054D00005D0FF2C08D00120A2420BD070BD0120C6
:1054E000002DFBD1FF2CF6D10120002EF6D101209A
:1054F000A242F3D1B542F1D18B4205D0002AEDD1C1
:10550000281C431E9841E9E70020E7E7F0B5430275
:105510004D024A0044005E0A240EC30F6D0A120EAB
:10552000C90FFF2C0DD0FF2A31D0002C0DD17742AE
:105530007741002A23D1002D21D10020002F0BD14B
:1055400007E0002E28D1FF2A21D0002A05D08B4267
:1055500007D0584201231843F0BD002DF9D08B42EB
:10556000F7D19442F5DC04DBAE42F2D80020AE4223
:10557000F2D25842434101205B421843ECE7002F2E
:10558000E5D048424141012049420843E4E7002D6B
:1055900002D1002CCBD0DAE702204042DCE7C04643
:1055A0004302F0B542004C005E0AC30F4802120EDF
:1055B000450A240EC90FFF2A0FD0FF2C1AD0002A4B
:1055C00010D177427741002C29D0002F17D04842C4
:1055D00041410120494208430BE00220002E08D13E
:1055E000FF2C07D0002C0AD1002D08D158420123EE
:1055F0001843F0BD0220002DFBD1002AE1D08B42E0
:10560000F4D1A242F2DC04DBAE42EFD80020AE427D
:10561000EFD25842434101205B421843E9E7002D95
:10562000D3D10020002FE4D1E0E7C046F0B55F46BB
:1056300056464D464446F0B445024600C40F83B07A
:105640000F1C6D0A360EA34645D0FF2E25D08023B1
:105650001B041D4300239A46ED007F3E01937B020D
:105660005B0A98467800FB0F000E994640D0FF2851
:1056700038D0802342461B041343DB0098460023A6
:105680007F384A46019F30186240411C1F430F2F4C
:1056900069D87D4EBF00F659B746002D45D1082385
:1056A0000193063B9A46DAE793465346022B2FD1E5
:1056B0005B46012400251C40FF236D02DB056D0ABB
:1056C000E4071D432543281C03B03CBC9046994683
:1056D000A246AB46F0BD002D2CD104230193033B21
:1056E0009A46BCE743465A4253410322D31AC8E7BD
:1056F00042460123002AC4D04046FFF7B5FB42468C
:10570000431F9A4076235B42181A90460023B8E75D
:10571000032B00D1ADE0012B00D08CE05B4654465A
:105720001C40E4B200230025C7E70C230193093B8A
:105730009A4694E7281CFFF797FB7626431F9D4067
:1057400000237642361A01939A4688E78025002482
:10575000ED03FF23B1E74546CB469A46A5E745460C
:1057600093469A46A1E743462C041B0C9C46230C07
:10577000444626041C1C360C2F0C7443351C66460C
:105780007D4373437743EB18260C9E19B54203D92A
:1057900080235B029C46674424043304240C1B19B9
:1057A0009D016C1EA5419B0E360C2B43BD19AD010E
:1057B0001D432B0104D5012368081D400543081C27
:1057C000031C7F33002B2CDD690704D00F212940F7
:1057D000042900D00435290103D52C4B1D40031C9E
:1057E0008033FE2B17DD0124FF231440002564E7DE
:1057F0008020C003054209D04346034206D14546F6
:1058000005436D026D0A4C46FF2356E705436D02C2
:105810006D0AFF2351E70124AD016D0ADBB214408C
:105820004BE77E235B421B1A1B2B07DD0124002361
:105830001440002541E7081C5A46C1E79E30291C48
:105840008540D940681E85410D436B0704D00F2366
:105850002B40042B00D004356B0104D50124012317
:105860001440002529E70124AD016D0A14400023EE
:1058700023E78023DB031D4301245B466D022340A5
:105880001C1C6D0AFF2318E758770000FFFFFFF785
:10589000F8B54A00430244004D02C00F240E061C16
:1058A0009B09120EC90FAD09FF2A00D175E001272F
:1058B0007940884250D0A01A002800DC8FE0002AEE
:1058C0001ED1002D00D075E05A0704D00F221A40D7
:1058D000042A00D0043380220120D2041A40304030
:1058E000002A32D00134FF2C00D184E09B015B0AF6
:1058F000E4B25B02E4055B0A2343C0071843F8BD2A
:10590000FF2CE1D08022D20415431B287ADD01252B
:105910005B1B5A015DD59B019F09381CFFF7A4FA58
:1059200005388740844269DC001B1F243A1C431C55
:10593000201ADA408740131C7C1EA74100243B43F9
:10594000C2E7131E45D100230020DB08FF2C28D01E
:105950005B025B0AE4B2CCE7A11A00295BDD002AF6
:105960002ED0FF2CB0D08022D20415431B2974DC2A
:105970002F1C2022CF40511A8D40691E8D413D437E
:105980005B195A0125D50134FF2C74D001217E4AC0
:10599000194013405B080B4396E7002D00D088E7C1
:1059A00085E7002B27D08022D20313435B025B0ADA
:1059B000FF249EE701380028AAD0FF2CA5D183E759
:1059C000002D00D180E701390029D9D0FF2CCDD19D
:1059D0007AE75A0700D079E701203040B5E7002880
:1059E00025D1621CD2B2012A55DD5F1B7A012DD56B
:1059F000EF1A0E1C91E7FF2400237AE7624B241A6A
:105A00003B4061E7291C2022C140101A8540681ED6
:105A100085410D437CE7002946D1621CD1B20129A2
:105A20002BDDFF2A26D0EB185B08141C4CE7002C5A
:105A300015D0FF2A1AD08024E404404223431B28B7
:105A40004DDD0123EB1A141C0E1C62E7002F00D061
:105A500063E700230020002477E7012590E7002B6F
:105A600039D0C0430028EDD0FF2AE8D12B1CFF24F9
:105A70000E1C29E7FF24002367E7002C5AD1002BD6
:105A80007FD0002D00D11FE75B195A01A1D53E4AF6
:105A90000134134018E7002C15D1002B2FD1002D15
:105AA0005ED02B1C0E1C0FE7002C21D1002B54D0F4
:105AB000C943002904D0FF2A4CD01B2958DD0123FB
:105AC0005B19141C5DE7002B23D1002D4BD02B1C40
:105AD0000E1CFF24F8E62B1C141C0E1CF4E61E1CE6
